:0E0000000C941F040C9400000C9400000C944F
:10000E0000000C9400000C9400000C9400000C9462
:10001E0000000C9400000C9400000C9400000C9452
:10002E0000000C9400000C9400000C94410A0C94F7
:10003E0000000C9400000C9400000C9400000C9432
:10004E0000000C949F0A0C9400000C9400000C9479
:10005E0000000C9400000C9400000C9400000C9412
:10006E0000000C9400000C9400000C9400000C9402
:10007E0000000C9400000C9400000C9400000C94F2
:10008E0000000C9400000C9400000C9400000C94E2
:10009E0000000C9400000C9400000C9400000C94D2
:1000AE0000000C9400000C9400000C9400000C94C2
:1000BE0000000C9400000C9400000C9400000C94B2
:1000CE0000000C9400000C9400000C9400000C94A2
:1000DE0000000C9400000C9400000C9400000C9492
:1000EE0000000C9400000C9400000C9400000C9482
:1000FE0000000C9400000C9400000C9400000C9472
:10010E0000000C9400000C9400000C9400000C9461
:10011E0000000C9400000C9400000C9400000C9451
:10012E0000000C9400000C9400000C9400000C9441
:10013E0000000C9400000C9400000C9400000C9431
:10014E0000000C9400000C9400000C9400000C9421
:10015E0000000C9400000C9400000C9400000C9411
:10016E0000000C9400000C9400000C9400000C9401
:10017E0000000C9400000C9400000C9400000C94F1
:10018E0000000C9400000C9400000C9400000C94E1
:10019E0000000C9400000C9400000C9400000C94D1
:1001AE0000000C9400000C9400000C9400000C94C1
:1001BE0000000C9400000C9400000C9400000C94B1
:1001CE0000000C9400000C9400000C9400000C94A1
:1001DE0000000C9400000C9400000C9400000C9491
:1001EE0000000C94000000000000000000005F0002
:1001FE00000000005F000000147F147F1400242A0A
:10020E007F2A1200231308646200364955225000DB
:10021E00000503000000001C224100000041221CCA
:10022E000000082A1C2A080008083E080800005092
:10023E0030000000080808080800003030000000F8
:10024E002010080402003E5149453E0000427F4006
:10025E0000004261514946002141454B31001814BE
:10026E00127F10002745454539003C4A4949300068
:10027E0001710905030036494949360006494929E5
:10028E001E00003636000000005636000000000842
:10029E0014224100141414141400412214080000F6
:1002AE00020151090600324979413E007E111111B9
:1002BE007E007F49494936003E41414122007F413F
:1002CE0041221C007F49494941007F090901010073
:1002DE003E41415132007F0808087F0000417F41B6
:1002EE0000002040413F01007F08142241007F4062
:1002FE00404040007F0204027F007F0408107F0010
:10030E003E4141413E007F09090906003E4151210F
:10031E005E007F091929460046494949310001010D
:10032E007F0101003F4040403F001F2040201F0042
:10033E007F2018207F0063140814630003047804E0
:10034E00030061514945430000007F414100020412
:10035E000810200041417F00000004020102040049
:10036E00404040404000000102040000205454541C
:10037E0078007F48444438003844444420003844D0
:10038E0044487F00385454541800087E0901020076
:10039E00081454543C007F080404780000447D4047
:1003AE0000002040443D0000007F10284400004122
:1003BE007F4000007C04180478007C080404780058
:1003CE003844444438007C141414080008141418DB
:1003DE007C007C0804040800485454542000043F58
:1003EE00444020003C4040207C001C2040201C004B
:1003FE003C4030403C004428102844000C505050E3
:10040E003C004464544C4400000000000000000016
:10041E000000C0F8FFFFFFFFFFFFF8C00000000064
:10042E00000000000000000000000000000000803E
:10043E00C0E0F0F8FCFE7F3F1F8F8FDFFFFFFEFC5A
:10044E00F8F0E0E0E0E0E0C0C0C0C0E0E0F0F0F0C6
:10045E00F8F8F8F8F8F8F8F0F0F0F8FCFEFEFEFC0C
:10046E00F8F8F8F8F8F8F8F0F0F0E0C0C080000006
:10047E00000000000000000000000000C0F8FCFEBC
:10048E00FEFCF8C000000000F0F0F8F8F8FCFCFCF0
:10049E00FEBEBFBF1F1F03031F1FBFBFBEFEFCFC60
:1004AE00FCF8F8F8F8FCFCFE3E3E1F1F1F1F1F1F36
:1004BE001F1F1F1F3F7FFEFFFFFFFFFFFFFF7F3F3F
:1004CE001F0F070303030F1F1F1F1F0F0F03010132
:1004DE00001C3E7FFFFFFFFFFFEFCF8F0F07018155
:1004EE00C1E3F7FFFFFFFF7F3F1F070F3F7F7F7EB9
:1004FE007CFCF8F8F0FCFEBE3E7F7F7FFFFFFFFF27
:10050E00F7FFFFFF7F7F7F3E01010303030707070E
:10051E000F0F7FFFFFFFF8F8FEFFFFFFFFFFF7FF54
:10052E00FFFFFFFF030101000000000000000000BC
:10053E0000000000000000010103030101000000A3
:10054E00000000000000000000000000000000009D
:10055E000000000000000103070F0F1F3F3F3F1F69
:10056E000F0F070301000000000000000000000054
:10057E000080C1E3FFFFFFFFFE000000010F1F3FE1
:10058E003F3F0F010000000000000000C0E0F0F04F
:10059E00E0C000031F7FFFFFFFFFE7C38181010162
:1005AE0001010101000000000080E1FF9F81C17F79
:1005BE001E0070F89C9494DC58008081F1FF8F80AF
:1005CE000000E0F09494F4FC9800041CFCC4603C21
:1005DE000C040000000000000080E1FF9F1131F9C3
:1005EE00CF860000F0E0E0E0C080800000000080D8
:1005FE00C7CFCF8F87F7FFFFFFFFFC000000000083
:10060E0000000000000000003E3E3E7FFFFFFFFFA7
:10061E00FFFF7F3E3E3EFCF1FBFFFFFFFF1F1F1F54
:10062E001F1F1F0C00000000000000000000000053
:10063E0000000000000000000000000000000000AC
:10064E000000000000000000000202020302000091
:10065E00000000000000000000000000000000008C
:10066E0000000000030307071FFFFFFFFCF8F8FF61
:10067E00FFFFFFFFFFFF7F3F7FFFFFFCF8F0F0F073
:10068E00E0E0E0C0000000000000000001030707EA
:10069E003779FCFCFCFEFFFFFFFFFFFFFFFFFEFCB8
:1006AE007CFCF8F8F8F8FCFCFCFCB800000000003C
:1006BE00000000000000000000C0E0E0E0C080008C
:1006CE000000000000000000C0E0E0E0C0000000FC
:1006DE00000000000080E0F8FCFCFCF8E0E0E0E048
:1006EE00E0E0E0F0F0F0F8FCFEFFFFFFFFFFFFFFA1
:1006FE007F0F7FFFFFFFFFFEFFFFFFDF8F870707E5
:10070E0007030301000000000000000000000000CD
:10071E000000000000011F7F7F7F3F1F01000000CF
:10072E000080C0F9FFFFFFFFFFDFDFDFDFDFDFFF4E
:10073E00FFFFFFFF1F1F1F1F1F0F0F0F0F1F1F3F5B
:10074E007EFEFCFCFCF8F8FEFFFFFFFFFFFEF8F854
:10075E00FCFCFEFE7F1F1F0F078381838383C3C3B1
:10076E00FBFFFFFFFFFFFFFFFFFFFFFFFFF9F9F0AA
:10077E00E000E0F0F9FFFFFF7F7F3F3F1F1F0F06F6
:10078E00000000000000000000000000000000005B
:10079E000000000000000000000000003C7EFEFE95
:1007AE00FFFFFFFF7F7F3F3F3F1F1F070707070723
:1007BE00070303010000000000000000000000001D
:1007CE00000000E1FFFFFFFFFF7F3E7FFFFFFFFF07
:1007DE00FFE10100000000060F1F1F1F1F3F3F3FDC
:1007EE00FFFFFFF9FFFFFF7F3F3F1F1F1F1FFFFF91
:1007FE00FFFFFFFFFF1F00000000000000000000D1
:10080E0000000000000000001027E80364000A004A
:10081E0001000010000110000100010030782530A9
:10082E00345825303458000001006E282808000086
:10083E00F894EE27E8BFE9BFEABFF091CC01F8606B
:10084E00F093CC01F8EDF4BFE093A200E0934004E6
:10085E00A0918000AD7FA160F4BFA093800080E0E6
:10086E0090E2A0E0B0E2ED930197E9F7E6E3F8E05D
:10087E0085919591009761F0A591B5910590159090
:10088E00BF01F00105900D920197E1F7FB01F0CF4A
:10089E008BBFE0E0E0B9E1B9E2B9E3B9E4B9E5B99B
:1008AE00E6B9E7B9E8B9E9B9EAB9EBB9ECB9EDB926
:1008BE00EEB9EFB92E2E3E2E4E2E5E2E6E2E7E2EC3
:1008CE008E2E9E2EAE2EBE2ECE2EEFEFDE2EEFEF06
:1008DE00EDBFEFE3EEBFC0E0D8E20C94D00AED2DF1
:1008EE00E095E03019F0DA94E0E00895E1E0089543
:1008FE0008951A9310E0A981BA81ED91A983BA8364
:10090E00E03011F01F5FF7CFE12F18810C94C5076F
:10091E001A9310E0E981FA813196E983FA833197CF
:10092E00E491E03011F01F5FF5CFE12F18810C94A8
:10093E00C507EFEFED1511F40C94F606DD2059F412
:10094E00ED2DE095E03031F00E940A0DE22DF32DF1
:10095E00099401C00895F30109950E94190D31F013
:10096E000E940A0DE22DF32D099401C008950E94F4
:10097E001F0DA1E0A083F201099508950E94240D98
:10098E000E94190D31F00E940A0DE22DF32D0994EB
:10099E0001C008950E942D0D0E941F0DA4E0A0839A
:1009AE00D394E5CFF40109950E941F0DA3E0A08317
:1009BE00D394DDCF0E94190D31F00E940A0DE22D65
:1009CE00F32D099401C008950E94360D0E94470D23
:1009DE00EEE3EC930E941F0DA8E0A083D394E2CF28
:1009EE000E94470DEFE3EC93E0916928EF5F0E94C0
:1009FE004C0DA23020F40E941F0DABE003C00E94EC
:100A0E001F0DACE0A083D3940C94D9040E94470D23
:100A1E00E8EBEC930E941F0DAAE0A083D394C2CF03
:100A2E000E94470DE0E4EC930E941F0DA9E0A08305
:100A3E00D394B8CF0E94510D0E945A0D0E94470DBB
:100A4E00EEE3EC930E941F0DA8E0A083D394AACFEF
:100A5E000E946B0D0E941F0DA7E0A083D3940C94EF
:100A6E00BE04E0E0E09369280E94740DF50109953B
:100A7E000E941F0DA6E0A083D3940C94BE040E9486
:100A8E00190D31F00E940A0DE22DF32D099401C0CB
:100A9E0008950E947D0DE09161280E94470DEC9310
:100AAE000E941F0DA0E1A083D3940C94D9040E9440
:100ABE00510D0E948E0DE0916028E0640E94470D5A
:100ACE00EC930E941F0DAFE0A083D3940C94D90435
:100ADE00A0916028A03418F00E945A0D02C00E9406
:100AEE00970D0E94510D0E948E0DEC2DE86B0E9409
:100AFE00470DEC930E941F0DAEE0A083D3940C948F
:100B0E00D9040E94A80DA0916028A03830F40E944C
:100B1E001F0DA2E1A083D394DBCF0E94190D31F0FB
:100B2E000E940A0DE22DF32D099401C00895E0E014
:100B3E00E0936028E09361280E941F0DA2E1A0833C
:100B4E00D394C6CFA0916928AF5FA0936928A63031
:100B5E0090F40E94AE0DDF010E94B60DEA0FFB1F4E
:100B6E000490009261280E94A80D0E941F0DA4E11E
:100B7E00A083D394ADCF0E94190D31F00E940A0DBF
:100B8E00E22DF32D099401C00895E0E0E093692869
:100B9E00E0916228F0E0B097E09362280E94AE0DDB
:100BAE000490009261280E941F0DA4E1A083D394AB
:100BBE008FCF0E94BA0DEC91E03051F00E94A80D3B
:100BCE000E94BF0D0E941F0DA6E1A083D394DDCF1E
:100BDE000E94190D31F00E940A0DE22DF32D099499
:100BEE0001C008950E94BA0DEC91E03041F00E94D0
:100BFE00BF0D0E941F0DA6E1A083D394C6CF0E9405
:100C0E00190D31F00E940A0DE22DF32D099401C049
:100C1E0008950E94190D31F00E940A0DE22DF32D58
:100C2E00099401C00895E0916328F0916428FA9325
:100C3E00EA930E9480040E94C80D0E94D00D0E946B
:100C4E00D70D0E941F0DA8E1A083D394CBCF0E9495
:100C5E00DF0DE491E03051F00E94A80D0E94E40DEA
:100C6E000E941F0DAAE1A083D3948FCF0E94190D6D
:100C7E0031F00E940A0DE22DF32D099401C0089562
:100C8E000E94DF0DE491E03049F00E94E40D0E94D5
:100C9E001F0DAAE1A083D3940C94CC050E94190DCC
:100CAE0031F00E940A0DE22DF32D099401C0089532
:100CBE000E94190D31F00E940A0DE22DF32D0994B8
:100CCE0001C008950E94DF0DFA93EA930E948F04EB
:100CDE000E94C80D0E94D00D0E94D70D0E941F0DBC
:100CEE00ACE1A083D394CCCFE7E0EC1521F4A09136
:100CFE006028AF3718F0E7E0CE1688F40E94A80DF2
:100D0E00A0916028A03821F4E0E0E0936028C3941D
:100D1E000E941F0DAEE1A083D3940C946F050E9428
:100D2E00190D31F00E940A0DE22DF32D099401C028
:100D3E000895E0E0E0936028CC24E09361280E94BF
:100D4E001F0DAEE1A083D3940C946F05A0916A2879
:100D5E00B0916B281196A0936A28B0936B28A0309F
:100D6E00E4E0BE07E0F4E0916A28EF77E0936028B4
:100D7E00E7E00E94660ECE2EE0916728F09168287B
:100D8E003196E0936728F0936828049000926128CA
:100D9E000E941F0DA0E2A083D3940C946F050E94B5
:100DAE00190D31F00E940A0DE22DF32D099401C0A8
:100DBE000895E0E0E0936A28E0936B28E0936028C2
:100DCE00CC24E0916728F091682804900092612865
:100DDE000E941F0DA0E2A083D3940C946F0508957A
:100DEE00EA89FB89E0930028F0930128E889F989C4
:100DFE00E0930228F0930328ED85FE85E093052805
:100E0E00F0930628EA85FB85E0930828F0930928DD
:100E1E00EF81F885E0930B28F0930C28EC81FD818F
:100E2E00E0930E28F0930F28E981FA81E0931128C0
:100E3E00F0931228EF85A1E00E945E0EE093042845
:100E4E00EC850E945E0EE0930728E9850E945E0EF7
:100E5E00E0930A28EE810E945E0EE0930D28EB814E
:100E6E000E945E0EE0931028E8810E945E0EE093D1
:100E7E001328E0910028F09101283397AFEFA0835B
:100E8E00E0910228F09103283397A0910428A083C3
:100E9E000E948E0DE0910528F09106283397A091BF
:100EAE000728A083E0910828F09109283397A09194
:100EBE000A28A083E0910B28F0910C283397A0917B
:100ECE000D28A083E0910E28F0910F283397A09162
:100EDE001028A083E0911128F09112283397A09149
:100EEE001328A08343C58BE48A95F1F70E942D0D3C
:100EFE008BE48A95F1F70E94240D08951A930E94AF
:100F0E00740D0E94ED0D0E946B0D0E94ED0D0E945E
:100F1E00510D0E945A0D10E0123090F40E94470DB0
:100F2E00EEE30E94F30DE0E40E94F30DE8EB0E9465
:100F3E00F30DEFE3EC93D7DF0E94360D1F5FECCF7E
:100F4E00F5C2AA81A03418F00E945A0D02C00E9468
:100F5E00970D0E94510D0E948E0DE981E86B0E9443
:100F6E00F70D0E94510D0E948E0DEA81E0640E94E1
:100F7E00F70D0E947D0DE8810E94F70D23960895CE
:100F8E001A93E981F0E0B097E98310E01630A0F4EF
:100F9E00EB81EA93EB81EA93EB81A6E0EA9FF00105
:100FAE00EC50FE4FDF01E12FF0E00E94FB0DEB81D4
:100FBE00EF5FEB831F5FEACF31C0A881B981EC915F
:100FCE00E03079F0EB81EA93EB81EA93AA81BB8161
:100FDE00ED91AA83BB83EA93D3DFEB81EA5FEB83C8
:100FEE00ECCF1DC01A93E981FA81FA93EA930E941D
:100FFE0080041E2FE6E0E19FF001A0E8B0E0AE1BFA
:10100E00BF0BE2E0F0E00E94820E1E2F1A93EC81DD
:10101E00EA93EB81FC81FA93EA93CFDF1881249651
:10102E0008951A930A9310E0183060F400E0003827
:10103E0038F40A931A93E0E0EA9383DF0F5FF7CF59
:10104E001F5FF2CF14C20E94AB0E10E000E020E052
:10105E0030E02030E4E03E0778F4103811F410E070
:10106E000F5F1A930A93F901AE81BF810E94FB0DA7
:10107E001F5F2F5F3F4FEDCF0E94B20E2696089551
:10108E001A930A930FB7F894EBECE0935200E091A9
:10109E005000E860E0935000E0914100E0781E2F90
:1010AE00E8EDE4BF10934100E0915500E072E26C70
:1010BE001E2FE8EDE4BF10935500E0915100E8704B
:1010CE00E1F3E0915000E061E0935000E0914100C7
:1010DE00E0781E2FE8EDE4BF10934100E09151003F
:1010EE00E071E1F3E0914000E87FE4601E2FE8ED4F
:1010FE00E4BF10934000E0915000E87FE093500071
:10110E00E091B400EC7FE093B4000FBFB0C1E0E01B
:10111E00E0930406E0930006E0931006E0931106B8
:10112E00E0931206E0931306E0931406E09315067F
:10113E00E0931606E0931706E0910906E07FE09330
:10114E000906E0E0E0930A06E0930B06E09324061E
:10115E00E0932006E0933006E0933106E0933206EA
:10116E00E0933306E0933406E0933506E0933606BB
:10117E00E0933706E0912906E07FE0932906E0E050
:10118E00E0932A06E0932B06E0934406E093400694
:10119E00E0935006E0935106E0935206E093530617
:1011AE00E0935406E0935506E0935606E0935706F7
:1011BE00E0914906E07FE0934906E0E0E0934A06BD
:1011CE00E0934B06E0936406E0936006E0937006AE
:1011DE00E0937106E0937206E0937306E093740653
:1011EE00E0937506E0937606E0937706E091690644
:1011FE00E07FE0936906E0E0E0936A06E0936B0619
:10120E00E0938406E0938006E0939006E0939106C7
:10121E00E0939206E0939306E0939406E09395068E
:10122E00E0939606E0939706E0918906E07FE093BF
:10123E008906E0E0E0938A06E0938B06E093A4062D
:10124E00E093A006E093B006E093B106E093B206F9
:10125E00E093B306E093B406E093B506E093B606CA
:10126E00E093B706E091A906E07FE093A906E0E0DF
:10127E00E093AA06E093AB06E093E406E093E00663
:10128E00E093F006E093F106E093F206E093F306A6
:10129E00E093F406E093F506E093F606E093F70686
:1012AE00E091E906E07FE093E906E0E0E093EA06EC
:1012BE00E093EB06E0930407E0930007E09310073A
:1012CE00E0931107E0931207E0931307E0931407DE
:1012DE00E0931507E0931607E0931707E0910907CF
:1012EE00E07FE0930907E0E0E0930A07E0930B0745
:1012FE00E0932407E0932007E0933007E093310753
:10130E00E0933207E0933307E0933407E093350719
:10131E00E0933607E0933707E0912907E07FE093EB
:10132E002907E0E0E0932A07E0932B07E093C40738
:10133E00E093C007E093D007E093D107E093D20784
:10134E00E093D307E091C907E07FE093C907E0E09F
:10135E00E093CA07E093CB07E093E407E093E0073E
:10136E00E093F007E093F107E091E907E07FE09367
:10137E00E907E0E0E093EA07E093EB070895E0E188
:10138E00E093B200E2E3E093B3000895A881B9813F
:10139E00EC91E07FEC931996ECE0EC932296089595
:1013AE001A930A931FB7F894E0E0F8E0FA93EA93E1
:1013BE00EDDFE0910008E07FE160E0930008E0914E
:1013CE000108E870E0930108E0910308E071E093F2
:1013DE000308E0910608E07FE360E0930608E091E1
:1013EE000708E070E0930708E0919008EE7FE09325
:1013FE009008E0919900EE7F0E2FE8EDE4BF009388
:10140E009900E0918008E07CE0938008E0918308E9
:10141E00E87EE0938308E0E0E0938208A4E8B8E079
:10142E000A2EAC91E0918408E470EA2BA02DEC9387
:10143E00E0910C08E0930C080E94010EEFEDF0E035
:10144E00E0932608F0932708E0E0F0E0E093280808
:10145E00F0932908E0932A08F0932B08E0932C08C8
:10146E00F0932D08E0932E08F0932F081FBF0991DB
:10147E00199108950A921A92FA926A937A938A931C
:10148E009A93AA93BA93EA93FA93EFB7EA930E94C8
:10149E00A004E991EFBFF991E991B991A9919991C0
:1014AE00899179916991F9901990099018951A93EB
:1014BE001FB7F894E0E4F8E0FA93EA9367DFE0915F
:1014CE004008E07FE160E0934008E0914108E87C4D
:1014DE00E0934108E0914308E071E0934308E09106
:1014EE004608E07FE260E0934608E0914708E07F1F
:1014FE00E0934708E0919008ED7FE0939008E0912B
:10150E004C08E0934C080E94080EEFEFFFEFE093BB
:10151E006608F0936708E0E0F0E0E0936808F09367
:10152E006908E0936A08F0936B081FBF199108953C
:10153E00EA93FA93EFB7EA93E0916C28F0916D2855
:10154E003196E0936C28F0936D28E991EFBFF991F5
:10155E00E99118950E94010EE0E002C0E0916E281C
:10156E00E09300080895E1E0F0E0E0936E28F09338
:10157E006F28EFEDF0E008C0E4E0F0E0E0936E28B5
:10158E00F0936F28EFE3FCE9E0932608F093270829
:10159E0008956697F894E091A200E873E6601E2F16
:1015AE00E8EDE4BF1093A200E0E0E093A10068DD57
:1015BE00AEDDE5DEF5DEE1EBFAE0E5EBFAE02F017C
:1015CE00E1EBFAE03F01EAEBFAE04F01E3ECFAE07F
:1015DE005F016DDF7894E4EFF1E0FA93EA930E94F5
:1015EE004A0EE4E8F6E0FA93EA930E940F0EE1E069
:1015FE00EA930E940F0EE4E0EA930E940F0EE5E0DC
:10160E000E94140EE1E00E94140EE2E00E94140EFD
:10161E00E3E0EA93E5DB72DC0E94080EE0E0E09383
:10162E006C28E0936D28E6E1F4E0FA93EA930BDD83
:10163E00E8EEF3E0FA93EA930E944A0EE0E0E093BC
:10164E004008FE01FA93EA93EAE2F8E0FA93EA938D
:10165E00E0916C28F0916D28662777270E949D0EE9
:10166E00E0916008F0916108662777270E949D0E31
:10167E0088E07ED12C96D5DCE0E0EA93FE0131962F
:10168E00FA93EA93AFDCFFCFFFCF1A930A93AA81A6
:10169E00BB8112960E94950E309759F1AA81BB819B
:1016AE0014960E94950E8F01309761F00230E0E0A3
:1016BE001E07F0F0F80131978F01AA81BB811496B5
:1016CE00ED93FC93AA81BB8112960E94950E3196E2
:1016DE00ED93FC933197AC81A083AA81BB810E94CC
:1016EE00950EFF232AF00E94950E3196ED93FC93F2
:1016FE0006C0AA81BB81EFEFFFEFED93FC9319813A
:10170E0008812596089526970E94A90E10E0AC85B3
:10171E00BD85E0E0F0E0ED93FC93EA89FB8931961C
:10172E00EA8BFB8B3197E4912E2FE03011F40C9461
:10173E00B70CE12FE03039F4253211F411E002C07C
:10174E000E941A0E0CC1E130A9F4253219F40E9440
:10175E001A0E04C112E040E000E02D3211F401E057
:10176E00FEC02B3211F44BE2FAC0203211F440E2EB
:10177E00F6C002C0E23039F450E013E0203311F429
:10178E000068EDC004C0E33011F00C94B60C2033A9
:10179E0010F02A3308F007C0AAE05A9F502DE22F0E
:1017AE00E0535E0FDCC0E22FE33649F40E94230EB5
:1017BE00E889F989A481AA930E94290ECFC0E33744
:1017CE0041F40E94230E0E94310E0E94F50C1E2F32
:1017DE000AC0E03761F40E94230E0E94310E0E946F
:1017EE00FF0C1E2F086002600F7730E035C0E43624
:1017FE0011F0E93611F4046002C0E53731F4E6E188
:10180E00F8E0EE83FF8315E00DC0E83511F40860B3
:10181E0004C0E83711F00C94B50CE0E2F8E0EE836A
:10182E00FF8314E002FF14C00E94230E0E943B0EA1
:10183E00AB85AA233AF4EA85FB850E945A0EEA8705
:10184E00FB874DE2403011F01F5F01C00B7F04C0DB
:10185E000E94230E0E943B0E00FD11C0151778F456
:10186E0007FF08C002FF04C00B7F242F115001C0D8
:10187E0020E301C020E20E941A0E5150EFCF312F0B
:10188E0001FF17C03030A1F003FF06C0EE81FF81CB
:10189E002591EE83FF8305C0AE81BF812D91AE836E
:1018AE00BF830E941A0E503009F051503150EACFCA
:1018BE004BC020E3EE81FF810E94990EE887F987E5
:1018CE00EE81FF813296EE83FF83E885F985AA8546
:1018DE00BB85AE17BF0750F02F5FA885B985EA8587
:1018EE00FB85EA1BFB0BEA87FB87EFCF2A3328F039
:1018FE0003FF02C0295F01C0295D04FD1AC0213318
:10190E0020F4A885B985119709F409C0531710F072
:10191E0000FF01C013C020E207FF0BC020E30061EF
:10192E0002FF07C00B7F4A930E94290E503009F028
:10193E0051500E941A0E503009F051503150A88566
:10194E00B985129708F0B5CF00FF08C0503031F0BE
:10195E005150E0E2EA930E94290EF8CF10E0DDCE5E
:10196E00AC85BD850E94950E0E94B00E64960895BA
:10197E00FF92F82E26970E94AB0E0E94430E3097D0
:10198E0019F4EFEFFFEF25C0DE0116960E94560EFA
:10199E008D010E94430EEE83FF83E0E0E887E98726
:1019AE00DE011A960E94560E0E94950EFA93EA9345
:1019BE001A930A93ECE4FBE0FA93EA93FE013A964B
:1019CE00FA93EA93A0DE9F01AE81BF81E0E0EC9333
:1019DE00F9010E94B20E2A96FF900895A991B9912D
:1019EE00EE27FF276D91662311F03196FBCF0895F8
:1019FE00AA27BB27E991F9910590002011F01196C5
:101A0E00FBCFFD010895ED2DF0E0EA5AF74DE08190
:101A1E00A4E1B8E2F0E0EE0FFF1FAE0FBF1F2D9056
:101A2E003C9008950E947604ED2DE095E0300895E7
:101A3E00ED2DF0E0EA5AF74D0895E0910A28A091B5
:101A4E000828B09109281296EC930895E0910A287F
:101A5E00A0910828B09109281196EC930895E09171
:101A6E000D28A0910B28B0910C281396EC93E091C1
:101A7E001028A0910E28B0910F281396EC9308957C
:101A8E00A0910028B09101280895E0936928A091B3
:101A9E0069280895E0910428A0910228B0910328A6
:101AAE001296EC930895E0910D28A0910B28B09119
:101ABE000C281296EC93E0911028A0910E28B0916C
:101ACE000F281196EC930895E0911328A0911128F8
:101ADE00B09112281196EC930895E0911328A091DD
:101AEE001128B09112281296EC930895E0910428D3
:101AFE00A0910228B09103281196EC93E09107284B
:101B0E00A0910528B09106281296EC930895E091C5
:101B1E000728A0910528B09106281296EC930895F7
:101B2E00E0910D28A0910B28B0910C281196EC9302
:101B3E00E0911028A0910E28B0910F281296EC93E8
:101B4E000895E0916028EF5FE09360280895E0919A
:101B5E006228A6E0EA9FF001EC50FE4F0895E09156
:101B6E006928F0E00895A0916328B0916428089543
:101B7E00FADFED91A0936328B0936428E093622876
:101B8E000895E0936928A6E0EA02F001E09369283F
:101B9E00E6CFA0E8B0E00E94A20EEA1BFB0B75CFC9
:101BAE00B0E0E2E0F0E00E94820EE093602808953B
:101BBE00E0916528F09166280895FADF0590E0938C
:101BCE006528F0936628009262280895EAE0F0E016
:101BDE00FA93EA930C944A0EEC930E947A0750CF34
:101BEE004FDFEC930C947A07EA0FFB1FE491EA9314
:101BFE000C94A807E0E0F0E0E0932008F0932108B1
:101C0E000895E0E0F0E0E0936008F0936108089535
:101C1E00E4E6F6E0FA93EA930895EA93E4EAF6E04E
:101C2E00FA93EA9308952A93ED85FE85FA93EA9343
:101C3E00E989FA8909950895E889F9893497E88B35
:101C4E00F98B0895ED85FE85FA93EA93E989FA8971
:101C5E0009950895A889B98914960E94950EEE8368
:101C6E00FF83FA93EA930895A889B98914960E947E
:101C7E00950EEA87FB870895DE011C960E94560E8C
:101C8E000E94950E0895E991F991309639F080E40D
:101C9E009FE10197F1F7A8953197C9F708950024B0
:101CAE00AF0DB01D0895F195E195F0400895EE2326
:101CBE000E2EEA2F19F0EE0F0A94E9F70895EE238F
:101CCE000E2EFD0121F0F695E7950A94E1F70895A1
:101CDE000024112490E1AA0FBB1F001C111C0E1A28
:101CEE001F0A18F40E0E1F1E01C0A1609A9599F7D7
:101CFE00FD01D001089504D0EBDF0EF4D4DF08957A
:101D0E00E894F7FF02C0CFDF6894B7FF06C0A09536
:101D1E00B095119600F8039400FA0895ED91FC9198
:101D2E00119708950590F491E02D08957A936A9392
:101D3E00FA93EA9308951B2EBF2FF12D1A2EAE2F74
:101D4E00E12D08955A934A933A932A931A930A933C
:101D5E0008955D814C813B812A8119810881089506
:00000001FF
