:0E0000000C944F030C9400000C9400000C9420
:10000E0000000C9400000C9400000C9400000C9462
:10001E0000000C9400000C9400000C9400000C9452
:10002E0000000C9400000C9400000C9400000C9442
:10003E0000000C9400000C9400000C9400000C9432
:10004E007F030C9400000000000000000000000080
:10005E000000000000000000000000000000000092
:10006E000000000000000000000000000000000082
:10007E00000202FEFEFEFE020200000202FEFEFE74
:10008E00FE0202000000000202FE020200007E1EBE
:10009E00060202FEFEFEFE0202061E7E00000000AA
:1000AE000000000000000000000000000000000042
:1000BE000000000000000000000000000000000032
:1000CE000000000000000000000000000000000022
:1000DE000000000000000000000000000000000012
:1000EE000000000000000000000000000000000002
:1000FE00000000FFFFFFFF000000000000FFFFFFF9
:10010E00FF0000000000000000FF000000000000E3
:10011E00000000FFFFFFFF000000000000000000D5
:10012E0000000000000000000000000000000000C1
:10013E0000000000000000000000000000000000B1
:10014E0000000000000000000000000080808080A1
:10015E000080000000000000000000000000000011
:10016E000000000000000000000000000000000081
:10017E000004040707070704040000008080818341
:10018E008707060404048482838080000000000038
:10019E00040404078787870404040000000000009D
:1001AE000000000000000000000000000000000041
:1001BE000000000000000000000000000000000031
:1001CE00000000000000000000000E193030306109
:1001DE0063C780000020E0E0000020E0E0000000A7
:1001EE0020E0E040202020C080000080C0202020A1
:1001FE00C080000020E0E040206060000000FF01B1
:10020E001FFEE000E01E01FFFF000000000020E3E3
:10021E00E300000000FFFF00000080C0202020C08F
:10022E00800000C0E0202020E0C0000000C0E020E0
:10023E002020C0C060600080C0202020C080000050
:10024E00000000000000000000001E0C081010103E
:10025E001008070000000F1F1010081F1F100000CD
:10026E0000FFFF081010100F070000070F111111EB
:10027E0011090000101F1F101000000010101F1099
:10028E0010011F1E0110101F1F1010000000101F64
:10029E001F100000101F1F100000070F1111111169
:1002AE000900000C1E1311091F1F100000B977342E
:1002BE0034343733E00000070F111111110900001B
:1002CE000000000000000000000000000000000020
:1002DE000000000000000000000000000000000010
:1002EE0002030302020000000000000000000000F4
:1002FE00008080E0E0808080000000008080800030
:10030E0000000000808080808000000000808080DF
:10031E0000808080000080808000000000000000CF
:10032E0000000000000000000000000000010202BA
:10033E0002020201000000000000000000000000A8
:10034E00000000000000000000000000000000009F
:10035E00000000000000000000000000000000008F
:10036E00000000000000000000000000000000007F
:10037E000000003F7F40402000001E3F44444447A1
:10038E00260000337B4C44247F7F400000407F7F5B
:10039E004100407F7F4100407F7F40000000000011
:1003AE00000000000000000000000000000000003F
:1003BE00000000000000000000000000000000002F
:1003CE00000000000000000000000000000000001F
:1003DE00000000000000000000000000000000000F
:1003EE0000000000000000000000000000000000FF
:1003FE0000000000000000000000000000000000EF
:10040E0000000000000000000000000000000000DE
:10041E0000000000000000000000000000000000CE
:10042E0000000000000000000000000000000000BE
:10043E0000000000000000000000000000000000AE
:10044E0000000000000000000000000000005F003F
:10045E00000000005F000000147F147F1400242AA7
:10046E007F2A120023130864620036495522500079
:10047E00000503000000001C224100000041221C68
:10048E000000082A1C2A080008083E080800005030
:10049E003000000008080808080000303000000096
:1004AE002010080402003E5149453E0000427F40A4
:1004BE0000004261514946002141454B310018145C
:1004CE00127F10002745454539003C4A4949300006
:1004DE000171090503003649494936000649492983
:1004EE001E000036360000000056360000000008E0
:1004FE001422410014141414140041221408000094
:10050E00020151090600324979413E007E11111156
:10051E007E007F49494936003E41414122007F41DC
:10052E0041221C007F49494941007F090901010010
:10053E003E41415132007F0808087F0000417F4153
:10054E0000002040413F01007F08142241007F40FF
:10055E00404040007F0204027F007F0408107F00AD
:10056E003E4141413E007F09090906003E415121AD
:10057E005E007F09192946004649494931000101AB
:10058E007F0101003F4040403F001F2040201F00E0
:10059E007F2018207F00631408146300030478047E
:1005AE00030061514945430000007F4141000204B0
:1005BE000810200041417F000000040201020400E7
:1005CE0040404040400000010204000020545454BA
:1005DE0078007F484444380038444444200038446E
:1005EE0044487F00385454541800087E0901020014
:1005FE00081454543C007F080404780000447D40E5
:10060E0000002040443D0000007F102844000041BF
:10061E007F4000007C04180478007C0804047800F5
:10062E003844444438007C14141408000814141878
:10063E007C007C0804040800485454542000043FF5
:10064E00444020003C4040207C001C2040201C00E8
:10065E003C4030403C004428102844000C50505080
:10066E003C004464544C440009004D6568646920A4
:10067E005A65696E616C6900BE04FF0001000500D9
:10068E0076060200680186060100900188060000C9
:10069E00F894EE27ECBBF1E0FBBFEBBFE5BFF8E152
:1006AE00F1BDE1BD8DE0A2E0BB27ED938A95E9F7A0
:1006BE0080E094E0A0E6ED930197E9F7EAE8F6E032
:1006CE0085919591009761F0A591B5910590159042
:1006DE00BF01F00105900D920197E1F7FB01F0CFFC
:1006EE00EFE5EDBFE4E0EEBFC0E6D1E00C94AB0366
:1006FE000A921A92FA926A937A938A939A93AA9387
:10070E00BA93EA93FA93EFB7EA937BD1E991EFBFED
:10071E00F991E991B991A9919991899179916991FB
:10072E00F99019900990189553BE0895E8E0E3BF2B
:10073E00E0E0E2BF0895E9E05E2EE3E503C0EDE000
:10074E005E2EE4E7ECBF0895E0E0EBBBEABBE8BB4E
:10075E00E7BBE5BBEFEFE4BBE0E0E2BBE1BBE8E00B
:10076E00E3BFE0E0E2BFE3E5ECBFE0E0EFBDEEBDEE
:10077E00EDBDECBDE7BDE6BDEBBDEABDE9BDE8BD37
:10078E00E2BDE5BDE4BDE3BDE5BFE4BFE2E0E9BF28
:10079E00E0E0EAB9E0E8E8B9E0E0E0BFE6B9EDB9DB
:1007AE00E6BF7894EBE9F3E0E0936001F09361012A
:1007BE00EDE9F3E0E0936201F0936301E2EAF3E026
:1007CE00E0936401F0936501E6EAF3E0E0936601DD
:1007DE00F0936701E8E3F0E0FA93EA930E947B0757
:1007EE00E2E0EA930E947B07E3E0EA930E947B0734
:1007FE00E4E0EA930E947B07E5E0EA930E947B0720
:10080E00E6E0EA930E947B07E7E0EA9324D0E2D188
:10081E00F2D0E030E9F70DD3EED0E030E9F7E3E0C7
:10082E00EA93EA93E8E7F6E0FA93EA93AED2E3D0DE
:10083E00E030E9F7E4E5F0E0FA93EA9348D3DBD051
:10084E00E030E9F7E8EEF3E0FA93EA930E940F083E
:10085E00F0D2FFCFFFCFEA89FB89E0936A01F093D4
:10086E006B01E889F989E0936C01F0936D01ED85D8
:10087E00FE85E0936F01F0937001EA85FB85E093AE
:10088E007201F0937301EF81F885E0937501F09397
:10089E007601EC81FD81E0937801F0937901E98195
:1008AE00FA81E0937B01F0937C01EF85E0936E017A
:1008BE00EC85E0937101E985E0937401EE81E0939C
:1008CE007701EB81E0937A01E881E0937D01E0917D
:1008DE006A01F0916B013197AFEFA083E0916C014B
:1008EE00F0916D013197BF0110800E948007E129C0
:1008FE00DB01EC93E0916F01F09170013197BF0134
:10090E0010800E948607E129DB010E948C070E945D
:10091E009407E0917201F09173013197BF0110803D
:10092E00E09174010E949907E0917501F0917601B2
:10093E003197BF011080E09177010E949907E091F5
:10094E007801F09179013197BF011080E0917A0121
:10095E000E949907E0917B01F0917C013197BF01D4
:10096E001080E0917D010E94990764960895089584
:10097E000E94A0073196369724F0A0919001AF3FC8
:10098E00A9F4E0919001EF5FE09390010E94A0071F
:10099E00E657FE4FA881A0830E94A407EA0FFB1F13
:1009AE00A981BA81A083B183E0E0C6C1E1E0C4C1F0
:1009BE00A0919001AF3F39F00E94A407AE0FBF1F68
:1009CE000E943B080895EEEBF4E008950895A0917F
:1009DE009001AF3F69F00E94A007E657FE4FA0E0DE
:1009EE00A083E0919001E150E0939001E0E0089542
:1009FE00E1E008950895A0919001E6E00E94230899
:100A0E0008950E94A0070E94AC0759F40E94A00707
:100A1E000E94B407E0916001F0916101099508957B
:100A2E0015C0E230A0E0FA0789F4E0916201F0917E
:100A3E00630109950E94B907A0919001AF3F29F477
:100A4E00E0916801F0916901099508950895E8E033
:100A5E00F5E00E94BF07D5DF08950E94A0070E940F
:100A6E00AC0759F4E0916401F091650109950E947B
:100A7E00A007E657FE4FA2E03CC0E230A0E0FA0726
:100A8E0019F40E94C5072DC0E330A0E0FA0729F43F
:100A9E000E94C5070E94CE070BC10895E4E3F5E05E
:100AAE000E94BF07DADF08950E94A0070E94AC07DC
:100ABE0091F4E0E0E09391010E94D2070E94CE07EC
:100ACE00E0916601F091670109950E94A007E65733
:100ADE00FE4FA2E00EC0E230A0E0FA0771F40E94D1
:100AEE00D207A1E00E94DB070E94A007E657FE4F47
:100AFE00A3E0A083ACDF08956CC0E330A0E0FA075A
:100B0E0089F40E94E1070E9494070E94E8070E9460
:100B1E00CE070E94F1070E94DB070E94FB07EEE35F
:100B2E00EC93B8C0E430A0E0FA0751F40E94FB0742
:100B3E00E0E4EC930E94A007E657FE4FA5E0B0C09C
:100B4E00E530A0E0FA0751F40E94FB07E8EBEC93C6
:100B5E000E94A007E657FE4FA6E0A2C0E630A0E036
:100B6E00FA07D1F40E94FB07EFE3EC93E0919101B9
:100B7E00EF5FE0939101A0919101A23030F40E94B9
:100B8E00A007E657FE4FA7E005C00E94A007E65754
:100B9E00FE4FA8E0A08385C0E730A0E0FA07A1F4DD
:100BAE000E94E807A1E00E941B08E125A62FEC9306
:100BBE000E94F1070E941B08E125A62FEC930E94CC
:100BCE00FB07EEE3EC9366C0E830A0E0FA0709F409
:100BDE006FC00895EBE5F5E00E94BF0765DF08954D
:100BEE000E94A0070E94AC0771F5E0E44E1650F08B
:100BFE000E94E8070E94CE070E94F1070E941B0880
:100C0E00E1290BC00E94E807A1E00E94DB070E94C9
:100C1E00F1070E941B08E095E121A62FEC930E949C
:100C2E00E107E095E121A62F0E948C070E94940710
:100C3E00E72DE86B0E94FB07EC930E94A007E65796
:100C4E00FE4FA2E02DC0E230A0E0FA07A1F40E9410
:100C5E00E107E095E121A62F0E948C070E949407E0
:100C6E00E42DE0640E94FB07EC930E94A007E65778
:100C7E00FE4FA3E015C0E330A0E0FA07A9F40E94EE
:100C8E00E107E129A62F0E948C070E9494070E947B
:100C9E00FB076C92E0919001F0E0E657FE4FA4E066
:100CAE00A083FCDE089508C0E430A0E0FA0721F42A
:100CBE008EDE7EDE0995089508954A8079806880DB
:100CCE00E7EFF5E00E94BF078BDF36C00E94A0075A
:100CDE000E94AC0771F4E0E0E0939201EA2DF0E09F
:100CEE00B097AE2E0E94A0070E94B4070E94000883
:100CFE00BBC0E230A0E0FA07B1F4E0919201EF5FE1
:100D0E00E0939201A0919201A63050F483940E9438
:100D1E000008DF01E0919201F0E00E94090802C094
:100D2E000E94B907089508958A80B980A880EDE6DB
:100D3E00F6E00E94BF07CADF239608950E94A0071F
:100D4E000E94AC0709F5E0919A01F0919B01E491A4
:100D5E00E030B9F0E0919801EA93E0919901EA93BD
:100D6E00AAE9B1E0ED91FD913196FE93EE933197A4
:100D7E00E491EA93D9DFE0919801EA5FE09398015C
:100D8E0002C00E94B90708950895EB81E09398017F
:100D9E00EA81E0939901E881F981E0939A01F09359
:100DAE009B01E5EAF6E00E94BF07C8DF249608958E
:100DBE000E94A0070E94AC0769F4E0E0E0939F0157
:100DCE00E093A0010E94A0070E94B407E0E0EA931E
:100DDE00EA934BC0E230A0E0FA0751F5A0919F01D3
:100DEE00A73021F4A091A001AF3720F0A0919F0170
:100DFE00A730D8F4E091A001EF5FE093A001A0919D
:100E0E00A001A03841F4E0E0E093A001E0919F0141
:100E1E00EF5FE0939F01E091A001EA93E0919F01C3
:100E2E00EA93E0E0EA9349DF02C00E94B907089511
:100E3E000895EFEDF6E00E94BF07BADF08950E9415
:100E4E00A0070E94AC07A9F4E0E0E093A301E093B1
:100E5E00A4010E94A0070E94B407E0E0EA93EA937F
:100E6E00E091A101F091A201E491EA9326DF0895A9
:100E7E002DC0E230A0E0FA0749F5A3EAB1E0ED910A
:100E8E00FD913196FE93EE93A091A301B091A40132
:100E9E00A030E4E0BE07B8F4E091A301F091A40104
:100EAE00EF77F070EA93E0E8F0E00E942808EA930A
:100EBE00E091A301F091A401A091A101B091A20132
:100ECE000E94090802C00E94B90708950895E8819A
:100EDE00F981E093A101F093A201E6E2F7E00E940E
:100EEE00BF07ADDF22960895EBE3F0E0FA93EA93A5
:100EFE000895E0916E01A1E00E941B080895E09113
:100F0E007101A1E00E941B080895EC93A0916F015E
:100F1E00B09170016A2F1C90F2CFE095E121A62FBF
:100F2E00EC930895A1E00E941B08E129DB01EC93EC
:100F3E000895E0919001F0E00895E0919001AEE700
:100F4E00B1E0F0E0EE0FFF1F0895E657FE4FE0818F
:100F5E00F0E0E130A0E0FA070895E657FE4FA2E078
:100F6E00A08308950E94EE040E94DF04099508955F
:100F7E00FA93EA93E1E0EA930C94BF04A091720114
:100F8E00B09173016A2F1C90E09174010895A1E055
:100F9E000E941B08C2CFA0917B01B0917C016A2FE9
:100FAE001C90E0917D0108950E941B08E129A62F57
:100FBE00EC930895A0916C01B0916D016A2F1C9075
:100FCE0098CFA0917501B09176016A2F1C90E09197
:100FDE0077010895A0917801B09179016A2F1C9044
:100FEE00E0917A01A1E00895A0916A01B0916B01A0
:100FFE0008958A92BA92EA2DA6E0EA9FF001EC5A81
:10100E00FB4F0895EA0FFB1FE491EA930C946406DC
:10101E00E991F991309639F088EB9BE00197F1F761
:10102E00A8953197C9F70895EE230E2EEA2F19F0E1
:10103E00EE0F0A94E9F70895AE17E1E008F0EE27F7
:10104E0008950024112490E1AA0FBB1F001C111C4F
:10105E000E1A1F0A18F40E0E1F1E01C0A1609A95DB
:10106E0099F7FD01D0010895ED91FC911197089526
:00000001FF
