:080000000C9437000C94000081
:100008000C9400000C9400000C9400000C94000068
:100018000C9400000C9400000C9400000C94000058
:100028000C9400000C9400000C9400000C94000048
:100038000C9400000C9400000C9400000C94000038
:100048000C9400000C9400000C94000023465543C7
:100058004B212300234D7A5A2121230080C002001E
:10006800600164000000F894EE27ECBBF1E0FBBFF0
:10007800EBBFE5BFF8E1F1BDE1BD8DE0A2E0BB2734
:10008800ED938A95E9F780E094E0A0E6ED93019777
:10009800E9F7E6E6F0E085919591009761F0A59182
:1000A800B59105901590BF01F00105900D9201974B
:1000B800E1F7FB01F0CFEFE5EDBFE4E0EEBFC0E60E
:1000C800D1E00C946700E0E0EBBBEABBE8BBE7BB20
:1000D800E5BBE4BBE2BBE1BBE0E1EA930E940E01B1
:1000E8000E94DD000F931F9305E910E0202E312EAA
:1000F8001F910F91E1E05E2EE3E4EA930E94E8008D
:10010800552031F0E1E44E2EE22DF32D099403C081
:10011800E2E4EA9359D0E4E5F0E0FA93EA9369D08F
:10012800FFCFECE5F0E0FA93EA9363D04A924CD023
:10013800FFCFFFCFE881E07111F0DC9A01C0DC98B5
:10014800E881E07211F0DD9A01C0DD98E881E07481
:1001580011F0DE9A01C0DE98E881E07811F0DF9AAC
:1001680001C0DF988BE08A95F1F7DA9A8BE18A95DE
:10017800F1F7DA988BE18A95F1F77CC0E881EA9388
:10018800D9DFE881E295E883E881EA93D3DF88EC58
:1001980090E00197F1F76EC0E881F0E0E05AFE4F79
:1001A800E081A981EA0FEA93E9DF798068802296E5
:1001B8000895E2E061D0ECE0EA93E0DFE1E05CD0B2
:1001C800E0E06E2E7E2E0895A881AA3011F07914F1
:1001D80048F0E0E0EA9363946A92DEDFA881AA30EF
:1001E80009F448C07394D89AE881EA93C7DFD8988D
:1001F80041C01A93E981FA813196E983FA833197EC
:10020800E4911E2FE03019F01A93DEDFF3CF188146
:1002180023960895D49AD59AD69AD79AD29AD09AEC
:10022800D19ADA98D898D9989880E881E058E093DC
:100238006201E881E054E0936301E4E1F0E0FA93BD
:10024800EA930E94500120D01FD01ED0E0E2EA932A
:1002580071DF80E991E00197F1F7E8E2EA938EDF38
:10026800E4E0EA938BDFE5E8EA9388DFE6E0EA93E7
:1002780085DF9FDF21960895EA9380DFE3E0F0E0D1
:10028800FA93EA930C945001E0E3EA9353DF80E990
:1002980091E00197F1F70895E991F991309639F0D5
:1002A80080EA9FE00197F1F7A8953197C9F708957B
:00000001FF
