:060000000C9470030C9447
:1000060000000C9400000C9400000C9400000C946A
:1000160000000C9400000C9400000C9400000C945A
:1000260000000C9400000C9400000C9400000C944A
:1000360000000C9400000C9400000C9400000C943A
:1000460000000C9400000C94760A0C94000000004A
:100056000000000000005F00000000005F000000DC
:10006600147F147F1400242A7F2A120023130864A5
:100076006200364955225000000503000000001CAE
:10008600224100000041221C0000082A1C2A080008
:1000960008083E080800005030000000080808085C
:1000A60008000030300000002010080402003E5115
:1000B60049453E0000427F400000426151494600EA
:1000C6002141454B31001814127F10002745454544
:1000D60039003C4A49493000017109050300364997
:1000E60049493600064949291E00003636000000F7
:1000F600005636000000000814224100141414149F
:100106001400412214080000020151090600324978
:1001160079413E007E1111117E007F494949360022
:100126003E41414122007F4141221C007F4949490D
:1001360041007F09090101003E41415132007F081B
:1001460008087F0000417F4100002040413F010038
:100156007F08142241007F40404040007F02040295
:100166007F007F0408107F003E4141413E007F0929
:10017600090906003E4151215E007F091929460002
:1001860046494949310001017F0101003F40404095
:100196003F001F2040201F007F2018207F0063148F
:1001A60008146300030478040300615149454300C1
:1001B60000007F41410002040810200041417F00F9
:1001C60000000402010204004040404040000001DB
:1001D600020400002054545478007F4844443800F8
:1001E600384444442000384444487F00385454542A
:1001F6001800087E09010200081454543C007F08C8
:100206000404780000447D4000002040443D000086
:10021600007F1028440000417F4000007C04180441
:1002260078007C08040478003844444438007C1480
:1002360014140800081414187C007C080404080030
:10024600485454542000043F444020003C40402081
:100256007C001C2040201C003C4030403C004428D0
:10026600102844000C5050503C004464544C440048
:1002760000000000000000000000C0F8FFFFFFFFC4
:10028600FFFFF8C0000000000000000000000000B2
:100296000000000000000080C0E0F0F8FCFE7F3F98
:1002A6001F8F8FDFFFFFFEFCF8F0E0E0E0E0E0C02C
:1002B600C0C0C0E0E0F0F0F0F8F8F8F8F8F8F8F0B0
:1002C600F0F0F8FCFEFEFEFCF8F8F8F8F8F8F8F0A6
:1002D600F0F0E0C0C0800000000000000000000058
:1002E60000000000C0F8FCFEFEFCF8C000000000A4
:1002F600F0F0F8F8F8FCFCFCFEBEBFBF1F1F0303BE
:100306001F1FBFBFBEFEFCFCFCF8F8F8F8FCFCFEA5
:100316003E3E1F1F1F1F1F1F1F1F1F1F3F7FFEFF6A
:10032600FFFFFFFFFFFF7F3F1F0F070303030F1FA3
:100336001F1F1F0F0F030101001C3E7FFFFFFFFF62
:10034600FFEFCF8F0F070181C1E3F7FFFFFFFF7FAD
:100356003F1F070F3F7F7F7E7CFCF8F8F0FCFEBE58
:100366003E7F7F7FFFFFFFFFF7FFFFFF7F7F7F3E21
:1003760001010303030707070F0F7FFFFFFFF8F8CD
:10038600FEFFFFFFFFFFF7FFFFFFFFFF0301010077
:100396000000000000000000000000000000000156
:1003A600010303010100000000000000000000003E
:1003B6000000000000000000000000000000010333
:1003C600070F0F1F3F3F3F1F0F0F070301000000DE
:1003D60000000000000000000080C1E3FFFFFFFFF7
:1003E600FE000000010F1F3F3F3F0F01000000000D
:1003F60000000000C0E0F0F0E0C000031F7FFFFF38
:10040600FFFFE7C381810101010101010000000036
:100416000080E1FF9F81C17F1E0070F89C9494DCF0
:1004260058008081F1FF8F800000E0F09494F4FC86
:100436009800041CFCC4603C0C0400000000000092
:100446000080E1FF9F1131F9CF860000F0E0E0E087
:10045600C080800000000080C7CFCF8F87F7FFFFE6
:10046600FFFFFC000000000000000000000000008C
:100476003E3E3E7FFFFFFFFFFFFF7F3E3E3EFCF11D
:10048600FBFFFFFFFF1F1F1F1F1F1F0C00000000A9
:100496000000000000000000000000000000000056
:1004A6000000000000000000000000000000000046
:1004B600000202020302000000000000000000002B
:1004C6000000000000000000000000000303070712
:1004D6001FFFFFFFFCF8F8FFFFFFFFFFFFFF7F3F57
:1004E6007FFFFFFCF8F0F0F0E0E0E0C00000000065
:1004F60000000000010307073779FCFCFCFEFFFF44
:10050600FFFFFFFFFFFFFEFC7CFCF8F8F8F8FCFCA1
:10051600FCFCB80000000000000000000000000025
:1005260000C0E0E0E0C08000000000000000000025
:10053600C0E0E0E0C0000000000000000080E0F83D
:10054600FCFCFCF8E0E0E0E0E0E0E0F0F0F0F8FCD5
:10055600FEFFFFFFFFFFFFFF7F0F7FFFFFFFFFFE97
:10056600FFFFFFDF8F870707070303010000000077
:1005760000000000000000000000000000011F7FD6
:100586007F7F3F1F010000000080C0F9FFFFFFFFD3
:10059600FFDFDFDFDFDFDFFFFFFFFFFF1F1F1F1FA5
:1005A6001F0F0F0F0F1F1F3F7EFEFCFCFCF8F8FE0F
:1005B600FFFFFFFFFFFEF8F8FCFCFEFE7F1F1F0F8C
:1005C600078381838383C3C3FBFFFFFFFFFFFFFF17
:1005D600FFFFFFFFFFF9F9F0E000E0F0F9FFFFFF92
:1005E6007F7F3F3F1F1F0F06000000000000000036
:1005F60000000000000000000000000000000000F5
:10060600000000003C7EFEFEFFFFFFFF7F7F3F3FB6
:100616003F1F1F0707070707070303010000000026
:100626000000000000000000000000E1FFFFFFFFE7
:10063600FF7F3E7FFFFFFFFFFFE101000000000696
:100646000F1F1F1F1F3F3F3FFFFFFFF9FFFFFF7FEA
:100656003F3F1F1F1F1FFFFFFFFFFFFFFF1F000082
:100666000000000000000000000000000000000084
:100676001027E80364000A000100001000011000C2
:100686000100090057686174277320746861743F1C
:100696003F3F3F00000000000000FF0030313233D2
:1006A6003435363738394142434445460048692196
:1006B600006B6A6B00736461680046696E697368F3
:1006C6006564210080C00100CC01880601000D0090
:1006D600A0060200CD01CA060000F894EE27ECBB86
:1006E600F1E0FBBFEBBFE5BFF8E1F1BDE1BD8DE099
:1006F600A2E0BB27ED938A95E9F780E094E0A0E6B7
:10070600ED930197E9F7ECECF6E08591959100976A
:1007160061F0A591B59105901590BF01F001059086
:100726000D920197E1F7FB01F0CFEFE5EDBFE4E0B5
:10073600EEBFC0E6D1E00C94A60AEA89FB89E093F5
:100746006001F0936101E889F989E0936201F09311
:100756006301ED85FE85E0936501F0936601EA8508
:10076600FB85E0936801F0936901EF81F885E093DA
:100776006B01F0936C01EC81FD81E0936E01F093C7
:100786006F01E981FA81E0937101F0937201EF85BF
:10079600E0936401EC85E0936701E985E0936A01E3
:1007A600EE81E0936D01EB81E0937001E881E093C7
:1007B6007301E0916001F09161013197AFEFA08381
:1007C600E0916201F09163013197BF011080E091E1
:1007D6006401A1E00E94760CE129DB01EC93E09133
:1007E6006501F09166013197BF011080E0916701C4
:1007F600A1E00E94760CE129DB01EC93A091650152
:10080600B09166016A2F1C90E0916701A1E00E94F9
:10081600760CE095E121A62FEC93E0916801F0912A
:1008260069013197BF011080E0916A01A1E00E9441
:10083600760CE129DB01EC93E0916B01F0916C0100
:100846003197BF011080E0916D01A1E00E94760C06
:10085600E129DB01EC93E0916E01F0916F01319794
:10086600BF011080E0917001A1E00E94760CE129A1
:10087600DB01EC93E0917101F09172013197BF01B8
:100886001080E0917301A1E00E94760CE129DB0162
:10089600EC93E4E7F1E00F931F930BE415E001936B
:1008A600119301E315E00193119301E915E001931A
:1008B60011930BE715E00193119304E515E00193FD
:1008C600119309E616E00193119302E516E00193F0
:1008D600119308E116E0019311930AE016E00193E3
:1008E60011930CEF15E0019311930EED15E00193B2
:1008F600119304EB15E0019311930BE915E00193B5
:1009060011930BEF16E0019311930CEC16E0019393
:1009160011930FE916E00193119306E816E001938F
:10092600119300E917E00193119306E617E001938E
:1009360011930AED17E0019311930DE917E0019366
:1009460011930BE218E00193119303EF17E0019363
:10095600119307E718E0019311930EE518E0019350
:10096600119309ED18E00193119300EA18E0019341
:10097600119306E219E0019311930DE019E001933A
:10098600119308E819E0019311930FE419E001931C
:1009960011930BED19E00193119307E919E0019307
:1009A60011931F910F9164960895ED2DF0E0319605
:1009B6003A971CF0EFEFED1549F4D394ED2DF0E0E6
:1009C600EA54FE4FA881A083E0E001C0E1E0219651
:1009D6000895ED2DE095E03019F0DA94E0E0089501
:1009E600E1E0089508951A9310E0A981BA81ED9186
:1009F600A983BA83E03011F01F5FF7CF0DC01A93B9
:100A060010E0E981FA813196E983FA833197E4911E
:100A1600E03011F01F5FF5CFE12F1881239608957E
:100A2600EFEFED1511F40C94F309DD20B9F4ED2D7B
:100A3600E095E03091F0ED2DF0E0EA54FE4FE081D4
:100A4600A4E7B1E0F0E0EE0FFF1FAE0FBF1F2D9041
:100A56003C90E22DF32D099401C00895F301099508
:100A6600B8DFED2DE095E03091F0ED2DF0E0EA54A1
:100A7600FE4FE081A4E7B1E0F0E0EE0FFF1FAE0FFE
:100A8600BF1F2D903C90E22DF32D099401C00895CF
:100A9600ED2DF0E0EA54FE4FA1E0A083F2010995A6
:100AA6000895A0916801B09169016A2F1C90E091A8
:100AB6006A01A1E00E94760CE095E121A62FEC9355
:100AC60088DFED2DE095E03091F0ED2DF0E0EA5471
:100AD600FE4FE081A4E7B1E0F0E0EE0FFF1FAE0F9E
:100AE600BF1F2D903C90E22DF32D099401C008956F
:100AF600A0916801B09169016A2F1C90E0916A018A
:100B0600A1E00E94760CE129A62FEC93ED2DF0E0F2
:100B1600EA54FE4FA4E0A083D394BACFF40109951A
:100B2600ED2DF0E0EA54FE4FA3E0A083D394B0CFBE
:100B36000E94EC04ED2DE095E03091F0ED2DF0E013
:100B4600EA54FE4FE081A4E7B1E0F0E0EE0FFF1FAC
:100B5600AE0FBF1F2D903C90E22DF32D099401C0DE
:100B66000895A0916B01B0916C016A2F1C90E091E1
:100B76006D01A1E00E94760CE125A62FEC93A091D1
:100B86006E01B0916F016A2F1C90E0917001A1E097
:100B96000E94760CE125A62FEC93A0916001B091FE
:100BA6006101EEE3EC93ED2DF0E0EA54FE4FA8E090
:100BB600A083D394B3CFA0916001B0916101EFE31C
:100BC600EC93E091C901EF5FE093C901A091C901DF
:100BD600A23030F4ED2DF0E0EA54FE4FABE005C054
:100BE600ED2DF0E0EA54FE4FACE0A083D3940C94D4
:100BF6009105A0916001B0916101E8EBEC93ED2DB8
:100C0600F0E0EA54FE4FAAE0A083D39487CFA091E8
:100C16006001B0916101E0E4EC93ED2DF0E0EA545F
:100C2600FE4FA9E0A083D39479CFA0916201B09141
:100C360063016A2F1C90E0916401A1E00E94760C8A
:100C4600E095E121A62FEC93A0916B01B0916C0188
:100C56006A2F1C90E0916D01A1E00E94760CE09550
:100C6600E121A62FEC93A0916E01B0916F016A2F3E
:100C76001C90E0917001A1E00E94760CE129A62F5C
:100C8600EC93A0916001B0916101EEE3EC93ED2D40
:100C9600F0E0EA54FE4FA8E0A083D3943FCFA091A2
:100CA6007101B09172016A2F1C90E0917301A1E06D
:100CB6000E94760CE129A62FEC93ED2DF0E0EA5484
:100CC600FE4FA7E0A083D3940C944B05E0E0E0939D
:100CD600C901A0917101B09172016A2F1C90E09137
:100CE6007301A1E00E94760CE095E121A62FEC931A
:100CF600F5010995ED2DF0E0EA54FE4FA6E0A0833C
:100D0600D3940C944B050E94EC04ED2DE095E03055
:100D160091F0ED2DF0E0EA54FE4FE081A4E7B1E05A
:100D2600F0E0EE0FFF1FAE0FBF1F2D903C90E22D9F
:100D3600F32D099401C00895A0916201B091630159
:100D46006A2F1C90E0916401A1E00E94760CE129D3
:100D5600A62FEC93A0916501B09166016A2F1C90B5
:100D6600E0916701A1E00E94760CE095E121A62FB3
:100D7600EC93E091C101A0916001B0916101EC9307
:100D8600ED2DF0E0EA54FE4FA0E1A083D3940C943D
:100D96009105A0916201B09163016A2F1C90E091C8
:100DA6006401A1E00E94760CE095E121A62FEC9368
:100DB600A0916501B09166016A2F1C90E0916701D0
:100DC600A1E00E94760CE095E121A62FEC93E0913C
:100DD600C001E064A0916001B0916101EC93ED2D3A
:100DE600F0E0EA54FE4FAFE0A083D3940C94910553
:100DF600A091C001A034E0F0A0916B01B0916C010C
:100E06006A2F1C90E0916D01A1E00E94760CE0959E
:100E1600E121A62FEC93A0916E01B0916F016A2F8C
:100E26001C90E0917001A1E00E94760CE1291BC0A4
:100E3600A0916B01B0916C016A2F1C90E0916D013D
:100E4600A1E00E94760CE129A62FEC93A0916E01F9
:100E5600B0916F016A2F1C90E0917001A1E00E9491
:100E6600760CE095E121A62FEC93A0916201B0915A
:100E760063016A2F1C90E0916401A1E00E94760C48
:100E8600E095E121A62FEC93A0916501B091660152
:100E96006A2F1C90E0916701A1E00E94760CE09514
:100EA600E121A62FEC93EC2DE86BA0916001B091A7
:100EB6006101EC93ED2DF0E0EA54FE4FAEE0A08325
:100EC600D3940C949105E091C001EF5FE093C001CB
:100ED600A091C001A03840F4ED2DF0E0EA54FE4F99
:100EE600A2E1A083D39484CF0E94EC04ED2DE0957B
:100EF600E03091F0ED2DF0E0EA54FE4FE081A4E7FA
:100F0600B1E0F0E0EE0FFF1FAE0FBF1F2D903C903B
:100F1600E22DF32D099401C00895E0E0E093C001AD
:100F2600E093C101ED2DF0E0EA54FE4FA2E1A0836B
:100F3600D3945ECFA091C901AF5FA093C901A6303B
:100F4600E8F4E091C201A6E0EA9FF001EC5AFF4FF7
:100F5600DF01E091C901F0E0EA0FFB1F0490009267
:100F6600C101E091C001EF5FE093C001ED2DF0E01B
:100F7600EA54FE4FA4E1A083D3943ACF0E94EC0436
:100F8600ED2DE095E03091F0ED2DF0E0EA54FE4FC6
:100F9600E081A4E7B1E0F0E0EE0FFF1FAE0FBF1F48
:100FA6002D903C90E22DF32D099401C00895E0E0C8
:100FB600E093C901E091C201F0E0B097E093C2016D
:100FC600A6E0EA9FF001EC5AFF4F04900092C1019F
:100FD600ED2DF0E0EA54FE4FA4E1A083D39408CFB0
:100FE600A091C301B091C401EC91E030C1F0E09151
:100FF600C001EF5FE093C001A3ECB1E0ED91FD917C
:101006003196FE93EE933197E081E093C201ED2D88
:10101600F0E0EA54FE4FA6E1A083D394C8CF0E9425
:10102600EC04ED2DE095E03091F0ED2DF0E0EA5482
:10103600FE4FE081A4E7B1E0F0E0EE0FFF1FAE0F38
:10104600BF1F2D903C90E22DF32D099401C0089509
:10105600A091C301B091C401EC91E03099F0A3ECEA
:10106600B1E0ED91FD913196FE93EE933197E081DB
:10107600E093C201ED2DF0E0EA54FE4FA6E1A08315
:10108600D39495CF0E94EC04ED2DE095E03091F0DD
:10109600ED2DF0E0EA54FE4FE081A4E7B1E0F0E088
:1010A600EE0FFF1FAE0FBF1F2D903C90E22DF32DCC
:1010B600099401C008950E94EC04ED2DE095E030FE
:1010C60091F0ED2DF0E0EA54FE4FE081A4E7B1E0A7
:1010D600F0E0EE0FFF1FAE0FBF1F2D903C90E22DEC
:1010E600F32D099401C00895E091C301F091C40164
:1010F600FA93EA930E94F604E093C901A6E0EA0295
:10110600F001E093C901F0E0A0E8B0E00E94AD0C68
:10111600EA1BFB0BE093C901A091C901B0E0E2E034
:10112600F0E00E949A0CE093C001ED2DF0E0EA5445
:10113600FE4FA8E1A083D3948BCFE091C501F09137
:10114600C601E491E030C9F0E091C001EF5FE093A1
:10115600C001A5ECB1E0ED91FD913196FE93EE93C1
:10116600319704900092C201ED2DF0E0EA54FE4F53
:10117600AAE1A083D3940C94DA070E94EC04ED2D27
:10118600E095E03091F0ED2DF0E0EA54FE4FE0817D
:10119600A4E7B1E0F0E0EE0FFF1FAE0FBF1F2D90EA
:1011A6003C90E22DF32D099401C00895E091C5010C
:1011B600F091C601E491E030A1F0A5ECB1E0ED912B
:1011C600FD913196FE93EE93319704900092C20101
:1011D600ED2DF0E0EA54FE4FAAE1A083D3940C94DF
:1011E600DA070E94EC04ED2DE095E03091F0ED2D4C
:1011F600F0E0EA54FE4FE081A4E7B1E0F0E0EE0F44
:10120600FF1FAE0FBF1F2D903C90E22DF32D0994CA
:1012160001C008950E94EC04ED2DE095E03091F0B8
:10122600ED2DF0E0EA54FE4FE081A4E7B1E0F0E0F6
:10123600EE0FFF1FAE0FBF1F2D903C90E22DF32D3A
:10124600099401C00895E091C501F091C601FA9391
:10125600EA930E940205E093C901A6E0EA02F001C2
:10126600E093C901F0E0A0E8B0E00E94AD0CEA1BF3
:10127600FB0BE093C901A091C901B0E0E2E0F0E008
:101286000E949A0CE093C001ED2DF0E0EA54FE4F67
:10129600ACE1A083D3948ACFE7E0EC1521F4A091CA
:1012A600C001AF3718F0E7E0CE16B0F4E091C00108
:1012B600EF5FE093C001A091C001A03821F4E0E007
:1012C600E093C001C394ED2DF0E0EA54FE4FAEE189
:1012D600A083D3940C94FB060E94EC04ED2DE095BC
:1012E600E03091F0ED2DF0E0EA54FE4FE081A4E706
:1012F600B1E0F0E0EE0FFF1FAE0FBF1F2D903C9048
:10130600E22DF32D099401C00895E0E0E093C001B9
:10131600CC24E093C101ED2DF0E0EA54FE4FAEE19E
:10132600A083D3940C94FB06AAECB1E0ED91FD9159
:101336003196FE93EE93E030A4E0FA0700F5E091D3
:10134600CA01EF77E093C001A091CA01B091CB0129
:10135600E7E00E947E0CCE2EA7ECB1E0ED91FD9168
:101366003196FE93EE9304900092C101ED2DF0E0CC
:10137600EA54FE4FA0E2A083D3940C94FB060E948D
:10138600EC04ED2DE095E03091F0ED2DF0E0EA541F
:10139600FE4FE081A4E7B1E0F0E0EE0FFF1FAE0FD5
:1013A600BF1F2D903C90E22DF32D099401C00895A6
:1013B600E0E0E093CA01E093CB01E093C001CC24C6
:1013C600E091C701F091C80104900092C101ED2D92
:1013D600F0E0EA54FE4FA0E2A083D3940C94FB06FF
:1013E6000895ED2DE095E030E1F7E5E064C0ED2DE0
:1013F600E095E030E1F7EA81E093C001C980E88139
:10140600E093C201E3E1EA930E94D8040E94130527
:101416000C941F0CED2DE095E030E1F7EB81E093A5
:10142600C001CA80E881F981E093C301F093C40149
:10143600E5E122C0ED2DE095E030E1F7CA80E881D4
:10144600F981E093C301F093C401E7E1EA930E94B6
:10145600D8040E9413050C941F0CED2DE095E03086
:10146600E1F7EB81E093C001CA80E881F981E0935E
:10147600C501F093C601E9E1EA930E94D8040E94EF
:10148600130524960895ED2DE095E030E1F7CA8026
:10149600E881F981E093C501F093C601EBE1EA9397
:1014A6000E94D8040E9413050C941F0CED2DE095A4
:1014B600E030E1F7EDE1EA930E94D8040E941305BB
:1014C6000895ED2DE095E030E1F7E881F981E093AC
:1014D600C701F093C801EFE1EA930E94D8040E9485
:1014E60013050C94D20B0A921A92FA926A937A9383
:1014F6008A939A93AA93BA93EA93FA93EFB7EA93E5
:101506000E941305E991EFBFF991E991B991A9916B
:101516009991899179916991F99019900990189505
:10152600E091CC01E3BF0895E0E0E3BFE2BF089598
:10153600E9E0E093CC01EFE604C0EDE0E093CC01F6
:10154600EBE9ECBF0895669786E1A0E0B0E0EAE833
:10155600F6E00E94B40CE0E0EBBBEABBE1E0E8BBDE
:10156600E0E0E7BBE5BBE4BBE2BBE1BBE3BFE2BF58
:10157600EFE6ECBFE0E0EFBDEEBDEDBDECBDE7BDD7
:10158600E6BDEBBDEABDE9BDE8BDE2BDE5BDE4BD36
:10159600E3BDE5BFE4BFE2E0E9BFE0E0EAB9E0E8C9
:1015A600E8B9E0E0E0BFE6B9EDB9E6BFE3E9FAE0A5
:1015B6002F01E7E9FAE03F01EBE9FAE04F01E0EA43
:1015C600FAE05F017894E0E1EA930E94210C0E9420
:1015D600D40BE0E0EA93E1E0EA930E94C30BE2EA6F
:1015E600F6E0FA93EA930E94100CE5E3F0E0FA9332
:1015F600EA93E2E3F0E0FA93EA93E0E0EA93E2E3C7
:10160600F0E0FA93EA93E1E0EA93E2E3F0E0FA939A
:10161600EA93E2E0EA93E2E3F0E0FA93EA93E3E0A6
:10162600EA93E2E3F0E0FA93EA93E4E0EA93E2E392
:10163600F0E0FA93EA93E5E0EA930E94A003D1DE94
:1016460035DFE0E0EA93E6E0EA93EDE4EA93CFDE05
:10165600E0E0EA93EA93E3EBF6E0FA93EA93FDDE41
:10166600E0E0EA93E1E0EA93FE013296FA93EA9328
:10167600D1DEE2E0EA93EBEBF6E0FA93EA9303DFDE
:10168600E3E0EA93FE013196FA93EA93D3DEE4EFC0
:10169600F1E0FA93EA930E94660C08DFE4EFF1E0CA
:1016A600FA93EA930E94660CE6E7F2E0FA93EA936D
:1016B60008DFED2DE095E03019F1F894EFE0EA93BC
:1016C600E1E0EA930E94C30BE9E5EA930E94EF0B7F
:1016D6007894E4E6F0E0FA93EA930E94660CF894B4
:1016E600EFE0EA93E1E0EA934BD0E8E5EA9374D0C1
:1016F6007894E4E6F0E0FA93EA930E94660CD9CF78
:1017060050D0E0E0EA93E1E0EA933AD0E0ECF6E08C
:10171600FA93EA9382D07894FFCFFFCFE881E07105
:1017260011F0DC9A01C0DC98E881E07211F0DD9AD4
:1017360001C0DD98E881E07411F0DE9A01C0DE9800
:10174600E881E07811F0DF9A01C0DF988BE08A9596
:10175600F1F7DA9A8BE18A95F1F7DA988BE18A95B7
:10176600F1F7AFC0E881EA93D9DFE881E295E88333
:10177600E881EA93D3DF88EC90E00197F1F7A1C006
:10178600E881F0E0E353FE4FE081A981EA0FEA9396
:10179600E9DFE981E093D101E881E093D201229665
:1017A6000895E2E0EA93DEDFE3E0F0E0FA93EA93FD
:1017B6000E94660CECE0EA93D5DFE1E0EA93D2DF23
:1017C600E3E0F0E0FA93EA930E94660CE0E0E0932F
:1017D600D201E093D1010895A881AA3031F0E091B9
:1017E600D301A091D101AE1768F0E0E0EA93E09151
:1017F600D201EF5FE093D201EA93C2DFA881AA305B
:1018060009F45FC0E091D101EF5FE093D101D89A6E
:10181600E881EA93A7DFD89854C01A93E981FA8140
:101826003196E983FA833197E4911E2FE03019F05F
:101836001A93D2DFF3CF188123960895D49AD59AB6
:10184600D69AD79AD29AD09AD19ADA98D898D9981D
:10185600E881E093D301E058E093CF01E881E054BA
:10186600E093D001E4E1F0E0FA93EA930E94660C7B
:10187600E0E3EA9353DF80E991E00197F1F7E0E3D3
:10188600EA934CDF80E991E00197F1F7E0E3EA9310
:1018960045DF80E991E00197F1F7E0E2EA933EDF68
:1018A60080E991E00197F1F7E8E2EA935BDFE4E093
:1018B600EA9358DFE5E8EA9355DFE6E0EA9352DF7C
:1018C60070DF21960895E991F991309639F080EA12
:1018D6009FE00197F1F7A8953197C9F70895F1951B
:1018E600E195F0400895EE230E2EEA2F19F0EE0F43
:1018F6000A94E9F70895EE230E2EFD0121F0F695E0
:10190600E7950A94E1F708950024112490E1AA0FBF
:10191600BB1F001C111C0E1A1F0A18F40E0E1F1EE8
:1019260001C0A1609A9599F7FD01D001089504D0F0
:10193600EBDF0EF4D4DF0895E894F7FF02C0CFDFA3
:101946006894B7FF06C0A095B095119600F8039469
:1019560000FA08951B2EBF2FF12D1A2EAE2FE12D62
:101966000895AC0FBD1F05900D928A95E1F7089575
:00000001FF
