:0C0000000C941F040C9400000C940000F1
:10000C000C9400000C9400000C9400000C94000064
:10001C000C9400000C9400000C9400000C94000054
:10002C000C9400000C9400000C9400000C947506C9
:10003C000C9400000C9400000C9400000C94000034
:10004C000C9400000C94D6060C9400000C94000048
:10005C000C9400000C9400000C9400000C94000014
:10006C000C9400000C9400000C9400000C94000004
:10007C000C9400000C9400000C9400000C940000F4
:10008C000C9400000C9400000C9400000C940000E4
:10009C000C9400000C9400000C9400000C940000D4
:1000AC000C9400000C9400000C9400000C940000C4
:1000BC000C9400000C9400000C9400000C940000B4
:1000CC000C9400000C9400000C9400000C940000A4
:1000DC000C9400000C9400000C9400000C94000094
:1000EC000C9400000C9400000C9400000C94000084
:1000FC000C9400000C9400000C9400000C94000074
:10010C000C9400000C9400000C9400000C94000063
:10011C000C9400000C9400000C9400000C94000053
:10012C000C9400000C9400000C9400000C94000043
:10013C000C9400000C9400000C9400000C94000033
:10014C000C9400000C9400000C9400000C94000023
:10015C000C9400000C9400000C9400000C94000013
:10016C000C9400000C9400000C9400000C94000003
:10017C000C9400000C9400000C9400000C940000F3
:10018C000C9400000C9400000C9400000C940000E3
:10019C000C9400000C9400000C9400000C940000D3
:1001AC000C9400000C9400000C9400000C940000C3
:1001BC000C9400000C9400000C9400000C940000B3
:1001CC000C9400000C9400000C9400000C940000A3
:1001DC000C9400000C9400000C9400000C94000093
:1001EC000C9400000C9400000000000000000000C3
:1001FC000000C0F8FFFFFFFFFFFFF8C00000000089
:10020C000000000000000000000000000000008062
:10021C00C0E0F0F8FCFE7F3F1F8F8FDFFFFFFEFC7E
:10022C00F8F0E0E0E0E0E0C0C0C0C0E0E0F0F0F0EA
:10023C00F8F8F8F8F8F8F8F0F0F0F8FCFEFEFEFC30
:10024C00F8F8F8F8F8F8F8F0F0F0E0C0C08000002A
:10025C00000000000000000000000000C0F8FCFEE0
:10026C00FEFCF8C000000000F0F0F8F8F8FCFCFC14
:10027C00FEBEBFBF1F1F03031F1FBFBFBEFEFCFC84
:10028C00FCF8F8F8F8FCFCFE3E3E1F1F1F1F1F1F5A
:10029C001F1F1F1F3F7FFEFFFFFFFFFFFFFF7F3F63
:1002AC001F0F070303030F1F1F1F1F0F0F03010156
:1002BC00001C3E7FFFFFFFFFFFEFCF8F0F07018179
:1002CC00C1E3F7FFFFFFFF7F3F1F070F3F7F7F7EDD
:1002DC007CFCF8F8F0FCFEBE3E7F7F7FFFFFFFFF4B
:1002EC00F7FFFFFF7F7F7F3E010103030307070733
:1002FC000F0F7FFFFFFFF8F8FEFFFFFFFFFFF7FF79
:10030C00FFFFFFFF030101000000000000000000E0
:10031C0000000000000000010103030101000000C7
:10032C0000000000000000000000000000000000C1
:10033C000000000000000103070F0F1F3F3F3F1F8D
:10034C000F0F070301000000000000000000000078
:10035C000080C1E3FFFFFFFFFE000000010F1F3F05
:10036C003F3F0F010000000000000000C0E0F0F073
:10037C00E0C000031F7FFFFFFFFFE7C38181010186
:10038C0001010101000000000080E1FF9F81C17F9D
:10039C001E0070F89C9494DC58008081F1FF8F80D3
:1003AC000000E0F09494F4FC9800041CFCC4603C45
:1003BC000C040000000000000080E1FF9F1131F9E7
:1003CC00CF860000F0E0E0E0C080800000000080FC
:1003DC00C7CFCF8F87F7FFFFFFFFFC0000000000A7
:1003EC0000000000000000003E3E3E7FFFFFFFFFCC
:1003FC00FFFF7F3E3E3EFCF1FBFFFFFFFF1F1F1F79
:10040C001F1F1F0C00000000000000000000000077
:10041C0000000000000000000000000000000000D0
:10042C0000000000000000000002020203020000B5
:10043C0000000000000000000000000000000000B0
:10044C0000000000030307071FFFFFFFFCF8F8FF85
:10045C00FFFFFFFFFFFF7F3F7FFFFFFCF8F0F0F097
:10046C00E0E0E0C00000000000000000010307070E
:10047C003779FCFCFCFEFFFFFFFFFFFFFFFFFEFCDC
:10048C007CFCF8F8F8F8FCFCFCFCB8000000000060
:10049C00000000000000000000C0E0E0E0C08000B0
:1004AC000000000000000000C0E0E0E0C000000020
:1004BC00000000000080E0F8FCFCFCF8E0E0E0E06C
:1004CC00E0E0E0F0F0F0F8FCFEFFFFFFFFFFFFFFC5
:1004DC007F0F7FFFFFFFFFFEFFFFFFDF8F87070709
:1004EC0007030301000000000000000000000000F2
:1004FC000000000000011F7F7F7F3F1F01000000F4
:10050C000080C0F9FFFFFFFFFFDFDFDFDFDFDFFF72
:10051C00FFFFFFFF1F1F1F1F1F0F0F0F0F1F1F3F7F
:10052C007EFEFCFCFCF8F8FEFFFFFFFFFFFEF8F878
:10053C00FCFCFEFE7F1F1F0F078381838383C3C3D5
:10054C00FBFFFFFFFFFFFFFFFFFFFFFFFFF9F9F0CE
:10055C00E000E0F0F9FFFFFF7F7F3F3F1F1F0F061A
:10056C00000000000000000000000000000000007F
:10057C000000000000000000000000003C7EFEFEB9
:10058C00FFFFFFFF7F7F3F3F3F1F1F070707070747
:10059C000703030100000000000000000000000041
:1005AC00000000E1FFFFFFFFFF7F3E7FFFFFFFFF2B
:1005BC00FFE10100000000060F1F1F1F1F3F3F3F00
:1005CC00FFFFFFF9FFFFFF7F3F3F1F1F1F1FFFFFB5
:1005DC00FFFFFFFFFF1F00000000000000000000F5
:1005EC0000000000000000001027E80364000A006F
:1005FC0001000010000110000100000000000000CC
:10060C0000005F00000000005F000000147F147FFA
:10061C001400242A7F2A120023130864620036492E
:10062C0055225000000503000000001C2241000070
:10063C000041221C0000082A1C2A080008083E0859
:10064C0008000050300000000808080808000030BE
:10065C00300000002010080402003E5149453E00C5
:10066C0000427F4000004261514946002141454B08
:10067C0031001814127F10002745454539003C4ABB
:10068C0049493000017109050300364949493600D2
:10069C00064949291E000036360000000056360077
:1006AC0000000008142241001414141414004122F8
:1006BC0014080000020151090600324979413E003C
:1006CC007E1111117E007F49494936003E4141415E
:1006DC0022007F4141221C007F49494941007F098A
:1006EC00090101003E41415132007F0808087F009A
:1006FC0000417F4100002040413F01007F0814224F
:10070C0041007F40404040007F0204027F007F0494
:10071C0008107F003E4141413E007F090909060057
:10072C003E4151215E007F0919294600464949493D
:10073C00310001017F0101003F4040403F001F207C
:10074C0040201F007F2018207F00631408146300D2
:10075C0003047804030061514945430000007F41C4
:10076C00410002040810200041417F0000000402F7
:10077C00010204004040404040000001020400001F
:10078C002054545478007F4844443800384444443E
:10079C002000384444487F00385454541800087ED4
:1007AC0009010200081454543C007F08040478002A
:1007BC0000447D4000002040443D0000007F102894
:1007CC00440000417F4000007C04180478007C0841
:1007DC00040478003844444438007C141414080091
:1007EC00081414187C007C08040408004854545461
:1007FC002000043F444020003C4040207C001C2052
:10080C0040201C003C4030403C0044281028440050
:10081C000C5050503C004464544C4400307825300B
:10082C003458253034580000FF00010026303408BD
:10083C000000F894EE27E8BFE9BFEABFF091CC01C5
:10084C00F860F093CC01F8EDF4BFE093A200E093D4
:10085C004004A0918000AD7FA160F4BFA093800004
:10086C0080E090E2A0E0B0E2ED930197E9F7E6E3D7
:10087C00F8E085919591009761F0A591B59105905F
:10088C001590BF01F00105900D920197E1F7FB0166
:10089C00F0CF8BBFE0E0E0B9E1B9E2B9E3B9E4B97C
:1008AC00E5B9E6B9E7B9E8B9E9B9EAB9EBB9ECB930
:1008BC00EDB9EEB9EFB92E2E3E2EE1E04E2EE0E072
:1008CC005E2E6E2E7E2E8E2E9E2EAE2EBE2ECE2EFC
:1008DC00DE2EEFEFEDBFEFE3EEBFC0E0D0E30C9404
:1008EC00E2061A930A930FB7F894EBECE0935200DC
:1008FC00E0915000E860E0935000E0914100E07816
:10090C001E2FE8EDE4BF10934100E0915500E0721A
:10091C00E26C1E2FE8EDE4BF10935500E0915100FE
:10092C00E870E1F3E0915000E061E0935000E09159
:10093C004100E0781E2FE8EDE4BF10934100E091F8
:10094C005100E071E1F3E0914000E87FE4601E2F7C
:10095C00E8EDE4BF10934000E0915000E87FE09395
:10096C005000E091B400EC7FE093B4000FBFB4C131
:10097C00E0E0E0930406E0930006E0931006E093B9
:10098C001106E0931206E0931306E0931406E0932D
:10099C001506E0931606E0931706E0910906E07F32
:1009AC00E0930906E0E0E0930A06E0930B06E0937F
:1009BC002406E0932006E0933006E0933106E093A2
:1009CC003206E0933306E0933406E0933506E09369
:1009DC003606E0933706E0912906E07FE09329067E
:1009EC00E0E0E0932A06E0932B06E0934406E093C4
:1009FC004006E0935006E0935106E0935206E093D4
:100A0C005306E0935406E0935506E0935606E093A4
:100A1C005706E0914906E07FE0934906E0E0E09359
:100A2C004A06E0934B06E0936406E0936006E0937D
:100A3C007006E0937106E0937206E0937306E09300
:100A4C007406E0937506E0937606E0937706E091E2
:100A5C006906E07FE0936906E0E0E0936A06E093C4
:100A6C006B06E0938406E0938006E0939006E09397
:100A7C009106E0939206E0939306E0939406E0933C
:100A8C009506E0939606E0939706E0918906E07F41
:100A9C00E0938906E0E0E0938A06E0938B06E0930E
:100AAC00A406E093A006E093B006E093B106E093B1
:100ABC00B206E093B306E093B406E093B506E09378
:100ACC00B606E093B706E091A906E07FE093A9068D
:100ADC00E0E0E093AA06E093AB06E093E406E09333
:100AEC00E006E093F006E093F106E093F206E09363
:100AFC00F306E093F406E093F506E093F606E09334
:100B0C00F706E091E906E07FE093E906E0E0E09388
:100B1C00EA06E093EB06E0930407E0930007E0930A
:100B2C001007E0931107E0931207E0931307E0938B
:100B3C001407E0931507E0931607E0931707E0916D
:100B4C000907E07FE0930907E0E0E0930A07E093F0
:100B5C000B07E0932407E0932007E0933007E09322
:100B6C003107E0933207E0933307E0933407E093C7
:100B7C003507E0933607E0933707E0912907E07FCC
:100B8C00E0932907E0E0E0932A07E0932B07E0933A
:100B9C00C407E093C007E093D007E093D107E0933C
:100BAC00D207E093D307E091C907E07FE093C90730
:100BBC00E0E0E093CA07E093CB07E093E407E0930F
:100BCC00E007E093F007E093F107E091E907E07F9D
:100BDC00E093E907E0E0E093EA07E093EB07089580
:100BEC00E0E1E093B200E2E3E093B3000895A88162
:100BFC00B981EC91E07FEC931996ECE0EC932296A2
:100C0C0008951A930A931FB7F894E0E0F8E0FA936A
:100C1C00EA93EDDFE0910008E07FE160E0930008EB
:100C2C00E0910108E870E0930108E0910308E0719D
:100C3C00E0930308E0910608E07FE360E093060888
:100C4C00E0910708E070E0930708E0919008EE7FD0
:100C5C00E0939008E0919900EE7F0E2FE8EDE4BF51
:100C6C0000939900E0918008E07CE0938008E0918B
:100C7C008308E87EE0938308E0E0E0938208A4E830
:100C8C00B8E00A2EAC91E0918408E470EA2BA02D18
:100C9C00EC93E0910C08E0930C08E0E0F0E0E093BA
:100CAC002008F0932108EFEDF0E0E0932608F09394
:100CBC002708E0E0F0E0E0932808F0932908E0939F
:100CCC002A08F0932B08E0932C08F0932D08E0935E
:100CDC002E08F0932F081FBF0991199108950A92BD
:100CEC001A92FA926A937A938A939A93AA93BA93E2
:100CFC00EA93FA93EFB7EA93C0D3E991EFBFF99176
:100D0C00E991B991A9919991899179916991F99008
:100D1C001990099018951A931FB7F894E0E4F8E02D
:100D2C00FA93EA9364DFE0914008E07FE160E0939E
:100D3C004008E0914108E87CE0934108E0914308C9
:100D4C00E071E0934308E0914608E07FE260E093B5
:100D5C004608E0914708E07FE0934708E09190084F
:100D6C00ED7FE0939008E0914C08E0934C08E0E0B4
:100D7C00F0E0E0936008F0936108EFEFFFEFE09391
:100D8C006608F0936708E0E0F0E0E0936808F09301
:100D9C006908E0936A08F0936B081FBF19910895D6
:100DAC00EA93FA93EFB7EA93F10131961F01E991B7
:100DBC00EFBFF991E99118956697F894E091A2002C
:100DCC00E873E6601E2FE8EDE4BF1093A200E0E0AC
:100DDC00E093A10086DDCCDD03DF13DF9CDF78948C
:100DEC00E4EFF1E0FA93EA930E94BC0DE4E8F6E03C
:100DFC00FA93EA93E4E6F6E0FA93EA93E1E0EA93F5
:100E0C00E4E6F6E0FA93EA93E4E0EA93E4E6F6E04B
:100E1C00FA93EA93E5E0EA93E4EAF6E0FA93EA93CC
:100E2C00E1E0EA93E4EAF6E0FA93EA93E2E0EA938B
:100E3C00E4EAF6E0FA93EA93E3E0EA935DD235D480
:100E4C0016D3E030E9F7E0E0F0E0E0936008F093CF
:100E5C00610822243324E4EFF1E0FA93EA9361D69B
:100E6C00E8EEF3E0FA93EA930E94BC0DE0E0E09325
:100E7C004008FE01FA93EA93E8E2F8E0FA93EA9369
:100E8C00F101662777270E940B0EE0916008F09124
:100E9C006108662777270E940B0E88E0D3D12C9629
:100EAC00E0D5E5D2E030E9F7E0E0EA93FE013196D7
:100EBC00FA93EA9378D5DBD2E030E9F7FFCFFFCF96
:100ECC001A930A93AA81BB8112960E94030E309743
:100EDC0059F1AA81BB8114960E94030E8F013097A1
:100EEC0061F00230E0E01E07F0F0F80131978F015D
:100EFC00AA81BB811496ED93FC93AA81BB811296B7
:100F0C000E94030E3196ED93FC933197AC81A08334
:100F1C00AA81BB810E94030EFF232AF00E94030EBC
:100F2C003196ED93FC9306C0AA81BB81EFEFFFEFE6
:100F3C00ED93FC93198108812596089526970E94BC
:100F4C00100E10E0AC85BD85E0E0F0E0ED93FC9375
:100F5C00EA89FB893196EA8BFB8B3197E4912E2F32
:100F6C00E03011F40C942109E12FE03069F42532C2
:100F7C0011F411E008C02A93ED85FE85FA93EA93EB
:100F8C00E989FA89099556C1E130D9F4253249F439
:100F9C002A93ED85FE85FA93EA93E989FA890995F6
:100FAC0048C112E040E000E02D3211F401E042C1F2
:100FBC002B3211F44BE23EC1203211F440E23AC123
:100FCC0002C0E23039F450E013E0203311F4006831
:100FDC0031C104C0E33011F00C942009203310F01F
:100FEC002A3308F007C0AAE05A9F502DE22FE05395
:100FFC005E0F20C1E22FE33679F4E889F989349742
:10100C00E88BF98BA481AA93ED85FE85FA93EA937C
:10101C00E989FA8909950DC1E33791F4E889F989D1
:10102C003497E88BF98BA889B98914960E94030E22
:10103C00EE83FF83FA93EA930E94A70D1E2F14C030
:10104C00E037B1F4E889F9893497E88BF98BA889F2
:10105C00B98914960E94030EEE83FF83FA93EA93E8
:10106C000E94B10D1E2F086002600F7730E043C064
:10107C00E43611F0E93611F4046002C0E53731F4BE
:10108C00E4EFF5E0EE83FF8315E00DC0E83511F4D5
:10109C00086004C0E83711F00C941F09EEEFF5E07E
:1010AC00EE83FF8314E002FF1AC0E889F9893497B4
:1010BC00E88BF98BA889B98914960E94030EEA87EC
:1010CC00FB87AB85AA232AF40E94CC0DEA87FB8709
:1010DC004DE2403011F01F5F01C00B7F0CC0E8895E
:1010EC00F9893497E88BF98BA889B98914960E94F1
:1010FC00030EEA87FB8700FD17C01517A8F407FF3E
:10110C0008C002FF04C00B7F242F115001C020E344
:10111C0001C020E22A93ED85FE85FA93EA93E989D2
:10112C00FA8909955150E9CF312F01FF1DC030309C
:10113C00D1F003FF06C0EE81FF812591EE83FF8382
:10114C0005C0AE81BF812D91AE83BF832A93ED85FF
:10115C00FE85FA93EA93E989FA890995503009F0EA
:10116C0051503150E4CF56C020E3EE81FF810E94F4
:10117C00070EE887F987EE81FF813296EE83FF83B5
:10118C00E885F985AA85BB85AE17BF0750F02F5FA0
:10119C00A885B985EA85FB85EA1BFB0BEA87FB87EB
:1011AC00EFCF2A3328F003FF02C0295F01C0295D6D
:1011BC0004FD1FC0213320F4A885B985119709F4CB
:1011CC0009C0531710F000FF01C01EC020E207FF3A
:1011DC0010C020E3006102FF0CC00B7F4A93ED8529
:1011EC00FE85FA93EA93E989FA890995503009F05A
:1011FC0051502A93ED85FE85FA93EA93E989FA8991
:10120C000995503009F051503150A885B985129785
:10121C0008F0AACF00FF0DC0503059F05150E0E259
:10122C00EA93ED85FE85FA93EA93E989FA890995A3
:10123C00F3CF10E08DCEAC85BD850E94030E0E94CD
:10124C00170EE2C0FF92F82E26970E94120EDE01B6
:10125C001C960E94C80D0E94030E309719F4EFEFF4
:10126C00FFEF29C0DE0116960E94C80D8D01DE012C
:10127C001C960E94C80D0E94030EEE83FF83E0E0D3
:10128C00E887E987DE011A960E94C80D0E94030EBA
:10129C00FA93EA931A930A93E6E6F7E0FA93EA9341
:1012AC00FE013A96FA93EA9349DE9F01AE81BF8123
:1012BC00E0E0EC93F9010E94190E2A96FF90089534
:1012CC00E0E0F0E0E0932008F0932108E0930008C0
:1012DC000895409200080895E1E0F0E02F01EFED51
:1012EC00F0E005C0E4E0F0E02F01EFE3FCE9E0936F
:1012FC002608F09327080895EA89FB89E0930030CB
:10130C00F0930130E889F989E0930230F0930330CF
:10131C00ED85FE85E0930530F0930630EA85FB857C
:10132C00E0930830F0930930EF81F885E0930B30AF
:10133C00F0930C30EC81FD81E0930E30F0930F3084
:10134C00E981FA81E0931130F0931230EF85A1E03E
:10135C000E94D00DE0930430EC850E94D00DE093F8
:10136C000730E9850E94D00DE0930A30EE810E948F
:10137C00D00DE0930D30EB810E94D00DE093103036
:10138C00E8810E94D00DE0931330E0910030F09191
:10139C0001303397AFEFA083E0910230F09103302E
:1013AC003397A0910430A083E0910730A0910530D1
:1013BC00B09106301296EC93E0910530F091063026
:1013CC003397A0910730A083E0910830F091093059
:1013DC003397A0910A30A083E0910B30F0910C3040
:1013EC003397A0910D30A083E0910E30F0910F3027
:1013FC003397A0911030A083E0911130F09112300E
:10140C003397A0911330A08364960895E091263011
:10141C00EF5FE0932630F0E0E05EFF4CA881A08304
:10142C00E0912630A4E1B0E3F0E0EE0FFF1FEA0FED
:10143C00FB1FA981BA81A083B183C6C2E09126307B
:10144C00A4E1B0E3F0E0EE0FFF1FAE0FBF1F0E9450
:10145C00030E0895E0912630F0E0E05EFF4CA0E032
:10146C00A083E0912630E150E09326300895A091BE
:10147C002630E6E00E94D80D0895E0912630F0E089
:10148C00E05EFF4CE081F0E0E130A0E0FA0751F4BF
:10149C00E0912630F0E0E05EFF4CA2E0A08319DF83
:1014AC00089506C0E230A0E0FA0711F409DF76C215
:1014BC000895E3E4FAE0FA93EA93E1E0EA93A6DF15
:1014CC00DCDF0895E0912630F0E0E05EFF4CE08137
:1014DC00F0E0E130A0E0FA0741F4FEDEE0912630C6
:1014EC00F0E0E05EFF4CA2E054C0E230A0E0FA076E
:1014FC0049F4E0910A30A0910830B091093011966E
:10150C00EC9341C0E330A0E0FA0749F4E0910A30D3
:10151C00A0910830B09109301296EC933FC2089517
:10152C00E8E6FAE0FA93EA93E1E0EA936FDFCADFC8
:10153C000895E0912630F0E0E05EFF4CE081F0E0B1
:10154C00E130A0E0FA0799F4E0E0E0932730E09175
:10155C001330A0911130B09112301296EC93C2DE80
:10156C00E0912630F0E0E05EFF4CA2E012C0E230E9
:10157C00A0E0FA0791F4E0911330A0911130B091F2
:10158C0012301196EC93E0912630F0E0E05EFF4CC7
:10159C00A3E0A0838EDF089587C0E330A0E0FA07B4
:1015AC00F9F4E0910430A0910230B091033012961E
:1015BC00EC93E0910D30A0910B30B0910C30129661
:1015CC00EC93E0911030A0910E30B0910F30119649
:1015DC00EC93A0910030B0910130EEE3EC93F8C0A5
:1015EC00E430A0E0FA0769F4A0910030B09101302A
:1015FC00E0E4EC93E0912630F0E0E05EFF4CA5E0F7
:10160C00EDC0E530A0E0FA0769F4A0910030B0918C
:10161C000130E8EBEC93E0912630F0E0E05EFF4C1B
:10162C00A6E0DCC0E630A0E0FA07F1F4A0910030AF
:10163C00B0910130EFE3EC93E0912730EF5FE09352
:10164C002730A0912730A23038F4E0912630F0E01A
:10165C00E05EFF4CA7E006C0E0912630F0E0E05ED3
:10166C00FF4CA8E0A083BBC0E730A0E0FA07B9F4B8
:10167C00E0910D30A0910B30B0910C301396EC939F
:10168C00E0911030A0910E30B0910F301396EC9386
:10169C00A0910030B0910130EEE3EC9399C0E830AA
:1016AC00A0E0FA0709F47AC10895EFE9FAE0FA9399
:1016BC00EA93E1E0EA93AADE3CDF0895E09126305C
:1016CC00F0E0E05EFF4CE081F0E0E130A0E0FA07F2
:1016DC0011F00C94B30BE0E47E1688F0E0910D3021
:1016EC00A0910B30B0910C301296EC93E09110302D
:1016FC00A0910E30B0910F301196EC9310C0E09188
:10170C000D30A0910B30B0910C301196EC93E09110
:10171C001030A0910E30B0910F301296EC93E091F6
:10172C000430A0910230B09103301296EC93E0910A
:10173C000730A0910530B09106301296EC93E62D4F
:10174C00E86BA0910030B0910130EC93E091263021
:10175C00F0E0E05EFF4CA2E041C0E230A0E0FA070E
:10176C00F1F4E0910430A0910230B0910330129664
:10177C00EC93E0910730A0910530B09106301296B1
:10178C00EC93E72DE064A0910030B0910130EC9324
:10179C00E0912630F0E0E05EFF4CA3E01FC0E330A8
:1017AC00A0E0FA07F9F4E0910430A0910230B09176
:1017BC0003301196EC93E0910730A0910530B09175
:1017CC0006301296EC93A0910030B09101309C92AF
:1017DC00E0912630F0E0E05EFF4CA4E0A083A0DEB8
:1017EC00089505C0E430A0E0FA0709F4D7C00895C5
:1017FC007A8069809880E4E6FBE0FA93EA93E1E072
:10180C00EA9304DE5BDFE0C0E0912630F0E0E05EBE
:10181C00FF4CE081F0E0E130A0E0FA07B9F4E0E041
:10182C00E0932830ED2DF0E0B097DE2EE0912630DD
:10183C00F0E0E05EFF4CA2E0A083BA92AA92ED2DFC
:10184C00A6E0EA9FF001EA5FF94F32C1E230A0E076
:10185C00FA0701F5E0912830EF5FE0932830A09172
:10186C002830A63098F4B394BA92AA92ED2DA6E043
:10187C00EA9FF001EA5FF94FDF01E0912830F0E0D8
:10188C00EA0FFB1FE491EA93B3DF03C0E3DDD6DD7F
:10189C00099508950895BA80A980D880EAE0FCE003
:1018AC00FA93EA93E1E0EA93B1DDAEDF8DC0E0910B
:1018BC002630F0E0E05EFF4CE081F0E0E130A0E0AB
:1018CC00FA07C9F4A0912A30B0912B30EC91E0309A
:1018DC0071F0CA92E0912930EA93ED91A0932A30ED
:1018EC00B0932B30EA93D7DFE6E0CE0E03C0B2DD27
:1018FC00A5DD099508950895CB80EA81E093293000
:10190C00E881F981E0932A30F0932B30EDE5FCE08F
:10191C00FA93EA93E1E0EA9379DDC9DF249608951E
:10192C00E0912630F0E0E05EFF4CE081F0E0E13049
:10193C00A0E0FA0779F5E0912D30F0912E30FA9372
:10194C00EA930E94A70DE0932F30A0912F30E6E090
:10195C00EA9FF001A0E8B0E0AE1BBF0BE2E0F0E0C4
:10196C000E94F00DE0932F30E0912630F0E0E05E25
:10197C00FF4CA2E0A083E0912F30EA93E0912C3051
:10198C00EA93E0912D30F0912E30FA93EA93B4DF84
:10199C00089508C0E230A0E0FA0721F45BDD4EDDCB
:1019AC00099508950895EA81E0932C30E881F98136
:1019BC00E0932D30F0932E30E6E9FCE0FA93EA93B5
:1019CC00E1E0EA9323DDACDF23960895E091263025
:1019DC00F0E0E05EFF4CE081F0E0E130A0E0FA07DF
:1019EC0081F4E0E0E0933730E0933830E09126303A
:1019FC00F0E0E05EFF4CA2E0A083E0E0EA93EA9323
:101A0C0058C0E230A0E0FA0759F5A0913730A73062
:101A1C0021F4A0913830AF3720F0A0913730A730A7
:101A2C00D8F4E0913830EF5FE0933830A091383043
:101A3C00A03841F4E0E0E0933830E0913730EF5FCC
:101A4C00E0933730E0913830EA93E0913730EA9305
:101A5C00E0E0EA93CDDE03C0FDDCF0DC09950895EF
:101A6C000895ECEEFCE0FA93EA93E1E0EA93CEDC25
:101A7C00ADDF0895E0912630F0E0E05EFF4CE081B0
:101A8C00F0E0E130A0E0FA07C1F4E0E0E0933B3095
:101A9C00E0933C30E0912630F0E0E05EFF4CA2E0B9
:101AAC00A083E0E0EA93EA93E0913930F0913A3088
:101ABC00E491EA939DDE089533C0E230A0E0FA078A
:101ACC0079F5E0913B30F0913C303196E0933B302E
:101ADC00F0933C30A0913B30B0913C30A030E4E02E
:101AEC00BE07D0F4E0913B30F0913C30EF77F070D2
:101AFC00EA93E0E8F0E00E94DD0DEA93E0913B30E0
:101B0C00F0913C30A0913930B0913A30EA0FFB1F84
:101B1C00E491EA936DDE03C09DDC90DC0995089599
:101B2C000895E881F981E0933930F0933A30E0E49C
:101B3C00FDE0FA93EA93E1E0EA9368DC9BDF2296FE
:101B4C000895A991B991EE27FF276D91662311F0A5
:101B5C003196FBCF0895AA27BB27E991F9910590FF
:101B6C00002011F01196FBCFFD010895E991F99138
:101B7C00309639F080E49FE10197F1F7A895319701
:101B8C00C9F708950024AF0DB01D0895F195E195A6
:101B9C00F0400895EE230E2EEA2F19F0EE0F0A9462
:101BAC00E9F70895AE17E1E008F0EE270895002458
:101BBC00112490E1AA0FBB1F001C111C0E1A1F0A46
:101BCC0018F40E0E1F1E01C0A1609A9599F7FD0125
:101BDC00D001089504D0EBDF0EF4D8DF0895E8941B
:101BEC00F7FF02C0D3DF6894B7FF06C0A095B0958D
:101BFC00119600F8039400FA0895ED91FC91119759
:101C0C0008950590F491E02D08957A936A93FA93D0
:101C1C00EA9308955A934A933A932A931A930A9300
:101C2C0008955D814C813B812A8119810881089539
:00000001FF
